:020000040800F2
:1000000098750020493A0008B1010008B3010008C2
:10001000B7010008BB010008BF0100080000000094
:10002000000000000000000000000000C301000804
:10003000C501000800000000BF200108815500082C
:10004000633A0008633A0008633A0008633A00081C
:10005000633A0008633A0008633A0008C11B0008CD
:10006000633A0008633A0008633A0008633A0008FC
:10007000633A0008633A0008633A0008633A0008EC
:10008000633A0008633A0008633A0008633A0008DC
:10009000633A0008633A0008633A0008633A0008CC
:1000A000633A0008633A0008633A0008633A0008BC
:1000B000633A0008633A0008633A0008633A0008AC
:1000C000633A0008633A0008633A0008633A00089C
:1000D000633A0008D3570008633A0008633A0008FF
:1000E000633A0008633A0008633A0008633A00087C
:1000F000633A0008633A0008633A0008633A00086C
:10010000633A00087D380008633A0008633A000843
:10011000633A0008633A0008633A0008633A00084B
:10012000633A0008633A0008633A0008633A00083B
:10013000633A0008633A0008633A0008633A00082B
:10014000633A0008633A0008633A0008633A00081B
:10015000633A0008633A0008633A0008633A00080B
:10016000633A0008633A0008633A0008633A0008FB
:10017000633A0008633A0008633A0008633A0008EB
:10018000633A0008633A0008DFF810D011F01CFF52
:1001900011F086FE00480047D9030008987500203A
:1001A00030BF72B6704762B6704780F308887047F8
:1001B000704700BFFEE700BFFEE700BFFEE700BFDD
:1001C000FEE77047704700000CB5002001900090DA
:1001D0007648006840F480307449086000BF734876
:1001E000006800F4003000900198401C01900098D5
:1001F00018B90198B0F5A04FF1D16C48006800F42F
:10020000003010B10120009001E000200090009823
:10021000012846D165484030006840F0805063496D
:10022000403108606248006840F44040604908601E
:100230005E48083000685D4908310860084600687B
:1002400040F4004008600846006840F4A050086090
:100250005848091F0860081F006840F08070091F97
:10026000086000BF5148006800F000700028F9D015
:1002700040F20570504908604C480830006820F092
:1002800003004A49083108600846006840F002004F
:10029000086000BF45480830006800F00C000828DE
:1002A000F8D10CBD10B54548006840F470004349D2
:1002B00008603E48006840F001003C4908600020AA
:1002C0003A4908310860394800683D4908403749D3
:1002D00008603C48091D0860081F006820F4802061
:1002E000091F0860002031490C310860FFF76CFFDE
:1002F0004FF0006031498039086010BD70B50020B2
:100300000022022300240221284D08352D6805F023
:100310000C0020B1042806D0082834D107E02A4D6B
:100320002A4E356033E02A4D284E35602FE01F4DB0
:100330002D1D2D68C5F380541C4D2D1D2D6805F015
:100340003F0154B1224DB5FBF1F5184E361D36680C
:10035000C6F3881605FB06F209E01B4DB5FBF1F567
:10036000124E361D3668C6F3881605FB06F20F4D91
:100370002D1D2D68C5F301456D1C6B00B2FBF3F517
:10038000124E356003E0104D104E356000BF00BFC7
:10039000064D08352D68C5F303150E4E705D0B4DE7
:1003A0002D68C540094E356070BD00000038024020
:1003B0000070004008544007003C024088ED00E017
:1003C000FFFFF6FE103000240024F400000000209F
:1003D00000127A000400002010B58AB00024A82082
:1003E00005F0D6F84FF4A06003F040FB4FF47A60BC
:1003F00005F02AF9FFF7D5FE01F0ECF9FFF7D3FE7F
:1004000009A809F083FF00BF00BF00BF08F0E4FAAD
:10041000044600BF00BF2C480078401C2A490870E1
:1004200000BF00BF204608F0DBFA00BF00BF00BFDE
:1004300009A8032100220592CDE906210890104663
:100440004FF400713322214BCDE90132CDE9031085
:10045000032000231E4A1FA1009020480EF0C8FC74
:1004600000BF00BF00BF08F0B7FA044600BF00BFDE
:1004700015480078401E1449087008460078A0B955
:1004800017480088002809DD00BF00BF204608F09B
:10049000A7FA00BF00BF0AF04BFD0DE000BF00BF90
:1004A000204608F09DFA00BF06E000BF00BF2046CE
:1004B00008F096FA00BF00BF00BF09A80AF0EFF9E4
:1004C00000200AB010BD0000E4000020900B0020C6
:1004D000270A00085354415254000000240200200F
:1004E000A8000020A0B000BFFAA005F067F9FBA0AB
:1004F00011F05EFFFEA005F061F900BFFDA1FE480E
:1005000000F04CFF04465CB100BFF2A005F056F9C4
:100510002146FAA011F04CFFF5A005F04FF900BFFD
:100520002AE11FA81EAB002264210090F9480DF0BB
:100530002BFDBDF87C0000281ED000BFE5A005F013
:100540003DF9F5A011F034FFE9A005F037F900BF3F
:10055000E948406800680028E2D000BFDDA005F04F
:100560002DF9F2A011F024FFE1A005F027F900BF5A
:10057000E14800F083FFFFE0F04918A800F005FC17
:10058000EE4912A800F037FCEC490CA800F069FC19
:10059000EA4800F042FE0B90E84800F0D9FDBDEEBD
:1005A000C00A8DED0A0AE54800F0D5FD0990E34840
:1005B00000F0D4FD8146E14800F0E3FD0546DF4848
:1005C00000F0F2FD0646DD4800F001FE0746DB487C
:1005D00000F010FE8046C848B0F85A00702816DABD
:1005E000C548B0F85820416D00F008FF04465CB1E2
:1005F00000BFB8A005F0E2F82146D1A011F0D8FE66
:10060000BBA005F0DBF800BFBB4801F00DF80221EC
:1006100012A812F082F890ED000ABDEEC00A10EEAA
:1006200010AA012112A812F078F890ED000ABDEE90
:10063000C00A10EE10BA002112A812F06EF890ED68
:10064000000ABDEEC00A8DED080A022118A812F0BA
:1006500064F890ED000ABDEEC00A8DED070A012195
:1006600018A812F05AF890ED000ABDEEC00A8DED00
:10067000060A002118A812F050F890ED000ABDEE0D
:10068000C00A8DED050ADDE907018DE80308CDF804
:100690000CA049469848DDE9052300F006FF022139
:1006A0000CA812F03AF890ED000ABDEEC00A10EE68
:1006B00010AA01210CA812F030F890ED000ABDEE4E
:1006C000C00A10EE10BA00210CA812F026F890ED26
:1006D000000ABDEEC00A8DED080A5B46CDF800A009
:1006E00029468548089A00F028FF9DF82E000090C2
:1006F0009DF92D309DF92C2031467F4800F0F5FE04
:1007000039467D480A9A00F040FF099882B2414676
:10071000794800F05BFF784800F079FF8E48006868
:1007200008B9012000E000208B49086000BF69A0E3
:1007300005F044F833462A46494688A0CDE90078BA
:1007400011F036FE6AA005F039F800BF8948C0F8FC
:100750000090894805608948066089480760894893
:10076000C0F800800CA811F05DFD12A811F05AFD30
:1007700018A811F057FD00BFD3E686B00AE000BF0D
:1007800054A005F01BF880A011F012FE58A005F04F
:1007900015F800BF824A8349574800F0ABFD002896
:1007A000EDD102AA03A9544800F0D4FD00BF49A02E
:1007B00005F004F87CA0039911F0FAFD4CA004F0B8
:1007C000FDFF00BF00BF43A004F0F8FF7CA002992A
:1007D00011F0EEFD46A004F0F1FF00BF44E005A8D3
:1007E00004AB00220A2100907B480DF0CDFBBDF840
:1007F000140068B1514800F092FA00BF35A004F02F
:10080000DDFF76A011F0D4FD39A004F0D7FF00BFC2
:100810004A4800F0B3FA04462146374800F00EFF7C
:10082000FF21464800F0ADFA04F0010020B16F4806
:100830000078401C6D4908706C4800780A2812D175
:100840006B480088B0F5FA7F0DDA00206749087020
:1008500067480088401C6649088005AA4FF400716B
:100860002C480DF0CEFD00BFB9E7A8B0614A07CA19
:1008700024AB07C324A91EA811F076FC24225D49ED
:100880000C3115A811F0E6FA09AC15AD5A482060F4
:100890000320208503216185201DE0622422294652
:1008A00011F0D8FA00BF5548206000BFBAE01EAA78
:1008B00009A903A811F015FD00202749091D0860AA
:1008C00027A8002164230A46CDE90010084610F04D
:1008D0002AFA95E044454255473A09006669727321
:1008E00074206C6F672064617461210D0A00000040
:1008F0000D0A0000494D5500E83100204372656142
:10090000742066696C65206572726F723A25642185
:100910000D0A0000282C002073656D5F77616974F3
:10092000206572726F722121210D0A00636C6F7352
:10093000652066696C652121210D0A00502C00207C
:100940004C6F672064617461206572726F723A2522
:100950006420210D0A000000B482404225642E204C
:1009600025642E2025642E2025642E2025640D0A62
:1009700000000000180000201C00002020000020C3
:1009800024000020280000204D6F756E7420534411
:100990002063617264206661696C6564210D0A00E0
:1009A000C02F0020902D0020534420546F74616CA0
:1009B0002053697A653A2564204B420D0A000000F5
:1009C000534420467265652053697A653A25642050
:1009D0004B420D0A00000000002C002074696D6578
:1009E000206F75742121210D0A00000016000020DF
:1009F00014000020C8270108C4310108E4310108AF
:100A000001205E49C1F8B80227A800214FF4FA730B
:100A10000A46CDE90010084610F085F903A811F048
:100A200001FC00BF43E730B58BB00446002500BF92
:100A300007F09AFE0AA80DF004FE0AAA0121084652
:100A400009F08DFE0AAB00224DA150480DF06DF962
:100A50000AAB00224EA150480DF067F900BF00BF5D
:100A600000BF07F0B9FF054600BF00BF4B48007844
:100A7000401C4A49087000BF00BF284607F0B0FF7D
:100A800000BF00BF00BF0AA8032100220592CDE9E4
:100A90000621089010464FF480711922404BCDE991
:100AA0000132CDE903101E200023AFF241223DA107
:100AB00000903D480EF09CF90AA8032100220592FF
:100AC000CDE9062108901046C8211422374BCDE904
:100AD0000132CDE903100B200023AFF2613234A1C3
:100AE000009036480EF084F90AA8032100220592EE
:100AF000CDE9062108901046C8211422304BCDE9DB
:100B0000013200230092CDE90310AFF227622DA13C
:100B10002E480EF06DF900BF00BF00BF07F05CFF6C
:100B2000054600BF00BF1D480078401E1B490870E5
:100B300008460078A0B926480088002809DD00BFD3
:100B400000BF284607F04CFF00BF00BF0AF0F0F9D5
:100B50000DE000BF00BF284607F042FF00BF06E0DF
:100B600000BF00BF284607F03BFF00BF00BF00BF2B
:100B70000AA918480EF090FA0BB030BD0080404230
:100B800053454E535F52445900000000002C002092
:100B90004441544C4F470000282C0020E400002022
:100BA000C01900204C454400B0160020C01D002094
:100BB00053454E534F525F50524F0000381800209B
:100BC000E0280020444154414C4F4700FC180020CD
:100BD000A8000020741700201CB504460A21FE4816
:100BE00000F0B6FF00EE100AB8EE400A84ED060AE7
:100BF00002236A460F21F84800F090FF0023DDE948
:100C0000001059185841C4E922101CBD1CB50446F7
:100C10000E21F14800F097FF208402236A4611213B
:100C2000ED4800F07BFF0023DDE900105918584122
:100C3000C4E924101CBD1FB50446042302AA0A21DE
:100C4000E54800F05DFFBDF80800C0F3C0116F205B
:100C50000155BDF80A00C1B26E200155BDF80C0067
:100C600040B284F86C00BDF80E0041B26D20015511
:100C700002236A460D21D84800F050FF0023DDE929
:100C8000001059185841C4E920101FBD3EB5044654
:100C900003236A460721D04800F040FF009800B2C5
:100CA000E081019801B22182029801B2618202239F
:100CB0006A460B21C84800F031FFD4E91C01C4E9A1
:100CC0001E013EBD10B588B00446072301AA0021CD
:100CD000C14800F023FF019800B26080029801B281
:100CE000A180039801B2E180049800B2A082059827
:100CF00000B22081069801B26181079801B2A181FA
:100D0000022301AA0B21B44800F008FF0023DDE90B
:100D1000011059185841C4E91C1008B010BD70B535
:100D200004460121AC4800F00EFFC5B220782843EC
:100D30002070207800F0010010B12046FFF7C2FFBC
:100D4000207800F0020010B12046FFF79FFF2078C6
:100D500000F0040010B12046FFF76DFF207800F08E
:100D6000100010B12046FFF751FF207800F0080076
:100D700010B12046FFF730FF284670BD01460878C5
:100D8000704702788A430270704770B505460C467A
:100D9000284611F025FA05460021284611F0BDFC31
:100DA000B4F9021000EE101AB8EEC00A80ED000A85
:100DB0000121284611F0B1FCB4F9041000EE101A1C
:100DC000B8EEC00A80ED000A0221284611F0A5FC09
:100DD000B4F9061000EE101AB8EEC00A80ED000A51
:100DE00070BD70B505460C4604F12401284611F08B
:100DF000D1F9054670BD70B505460C46284611F080
:100E0000EFF905460021284611F087FCB4F90810D7
:100E100000EE101AB8EEC00A80ED000A0121284643
:100E200011F07BFCB4F90A1000EE101AB8EEC00AFB
:100E300080ED000A0221284611F06FFCB4F90C1075
:100E400000EE101AB8EEC00A80ED000A70BD70B551
:100E500005460C4604F13C01284611F09BF9054675
:100E600070BD70B505460C46284611F0B9F9054627
:100E70000021284611F051FCB4F90E1000EE101AB2
:100E8000B8EEC00A80ED000A0121284611F045FCA9
:100E9000B4F9101000EE101AB8EEC00A80ED000A86
:100EA0000221284611F039FCB4F9121000EE101A94
:100EB000B8EEC00A80ED000A70BD70B505460C465C
:100EC00004F15401284611F065F9054670BDB0F9EA
:100ED000141000EE101AF8EEC00A9FED401A80EED2
:100EE000810ADFED3F0A30EE200A704710B52DED84
:100EF000028B92B0044606A811F072F9002106A8F0
:100F000011F00BFC90ED008A002106A811F005FC01
:100F100080ED008A012106A811F0FFFB90ED008A08
:100F2000012106A811F0F9FB80ED008A022106A834
:100F300011F0F3FB90ED008A022106A811F0EDFB01
:100F400080ED008A06AA27490CA811F0CAF9264AA2
:100F50000CA9684611F019FC0CA811F063F9694658
:100F600004F1540011F060F9684611F05BF906A82D
:100F700011F058F912B0BDEC028B10BD2DE9F04311
:100F80002DED028BABB004460E461FA811F028F9D8
:100F900000211FA811F0C1FBB4F9021000EE101AD5
:100FA000B8EEC00A80ED000A01211FA811F0B5FBC0
:100FB000B4F9041000EE101AB8EEC00A80ED000A71
:100FC00002211FA811F0A9FBB4F9061000EE101AB7
:100FD000B8EEC00A0AE000002C0000200000AA437E
:100FE00000000C42002D0020482D002080ED000A5A
:100FF000AD4A1FA919A811F0A9FB9FEDAC0A19A8C9
:1010000011F090FB19AAAA4925A811F06AF925A99F
:1010100004F1240011F008F9054625A811F002F9A1
:1010200013A811F0DDF8002113A811F076FBB4F934
:10103000081000EE101AB8EEC00A80ED000A012177
:1010400013A811F06AFBB4F90A1000EE101AB8EEFA
:10105000C00A80ED000A022113A811F05EFBB4F96A
:101060000C1000EE101AB8EEC00A80ED000A012E36
:1010700047D19049904811F049FB904901A811F0DF
:1010800073F8804607AD8C4FB4F9140000EE100AD7
:10109000B8EEC08A284611F0A3F8054600200CE0FF
:1010A000391D01EB800191ED000A20EE080A291D8F
:1010B00001EB800181ED000A401C0328F0D3424679
:1010C00007A90DA811F061FB0DA97B4811F0ACF840
:1010D00081460DA811F0A6F807A811F0A3F801A801
:1010E00011F0A0F8744A13A901A811F02FFB01A96F
:1010F00004F13C0011F098F8054601A811F092F8AF
:1011000012E06F496C4811F001FB6B4A13A90DA85E
:1011100011F01CFB0DA904F13C0011F085F8054607
:101120000DA811F07FF800BF9FED660A04F13C00A6
:1011300011F0F8FA13A811F075F819A811F072F867
:101140001FA811F06FF82BB0BDEC028BBDE8F08347
:1011500090ED060A70470146088C704770B504464A
:101160004FF4FA73D4E91C20D51840F100015A005D
:101170000023284610F03DFE70BD0246D2E91C0156
:10118000704770B504464FF4FA73D4E91E20D518A1
:1011900040F100015A000023284610F02AFE70BDDD
:1011A0000246D2E91E01704770B504464FF4FA7347
:1011B000D4E92020D51840F100015A000023284628
:1011C00010F017FE70BD0246D2E92001704770B5DD
:1011D00004464FF4FA73D4E92220D51840F10001F7
:1011E0005A000023284610F004FE70BD0246D2E9E2
:1011F0002201704770B504464FF4FA73D4E92420F5
:10120000D51840F100015A000023284610F0F1FDE6
:1012100070BD0246D2E9240170470146C86E70478E
:1012200001466E20405C7047014691F96C007047A2
:10123000014691F96D00704710B5234811F000F890
:101240000446224A224911F0D7F82249164810F0E4
:101250008BFF04461D4A204911F0CEF81F4914485F
:1012600010F068FF0446194A1D4911F0C5F81149EC
:10127000114810F079FF0446144A174911F0BCF8E0
:101280001849194810F070FF0446104A124911F02D
:10129000B3F81649164810F04DFF04460B4A1049A2
:1012A00011F0AAF810BD0000E82C002053E71C3B09
:1012B000002D002034280108302D0020402801088E
:1012C000282801088DC1793D502C0020000000081D
:1012D000A9220108F827010825220108042801088D
:1012E000652101084C280108482D002058280108D4
:1012F000602D00202DE9F04104460D4616460027DA
:101300002560206810B9FF20BDE8F0816660606844
:1013100008B9FF20F8E70122D7A1206805F037FEC1
:10132000074657B900BFD5A004F048FAD5A011F080
:101330003FF8D9A004F042FA0AE000BFCFA004F0C1
:101340003DFAD6A011F034F8D3A004F037FA00BF6C
:101350003846D9E72DE9FC4781460C461546002062
:1013600000900027804601AA6946D3A006F033FB0F
:10137000064686B901984069801E0199897800FB6C
:1013800001F801988078009900FB01F74FEA5800B6
:101390002060780828603046BDE8FC87F0B585B04D
:1013A00005460E4600273246C4A1684611F010F8E3
:1013B00000BF06226946686805F014FE0446082C42
:1013C00016D100BFADA004F0F9F96946BDA010F038
:1013D000EFFFB1A004F0F2F900BF781CC0B20746DD
:1013E00003463246BEA1684610F0F2FF07B901E09D
:1013F000082CDED000BF204605B0F0BD2DE9F0413D
:1014000004460F46164604F10C033246394660681E
:1014100005F089FF054615B9E068B0420DD000BF60
:1014200096A004F0CBF932462946B0A0E36810F04C
:10143000BFFF99A004F0C2F90AE000BF8FA004F03A
:10144000BDF9B7A010F0B4FF93A004F0B7F900BF46
:10145000606806F05DF8054675B100BF87A004F02E
:10146000ADF92946B4A010F0A3FF8BA004F0A6F9B3
:1014700000BF2846BDE8F0812846FBE770B5054669
:10148000686806F09DF804466CB100BF7BA004F0CC
:1014900095F92146B0A010F08BFF7FA004F08EF9E3
:1014A00000BF204670BD2046FCE72DE9F04F93B009
:1014B00004460D4616461F46DDE91EABDDE91C89D4
:1014C00094F85C0020F0010084F85C0033462A4662
:1014D000A9A106A88DE8800F10F07AFF06A9606D1B
:1014E00010F0CAFC13B0BDE8F08F2DE9F0418AB0CE
:1014F00004460D4616461F46DDF8408094F85C0011
:1015000000F0040070B194F85C0020F0040084F84E
:101510005C0033462A469EA102A8CDE9007810F06F
:1015200057FF03E09EA102A810F052FF02A9606DD0
:1015300010F0A2FC0AB0BDE8F0812DE9F0418AB0BC
:1015400004460D4616461F46DDF8408094F85C00C0
:1015500000F0020070B194F85C0020F0020084F802
:101560005C0033462A468AA102A8CDE9007810F033
:101570002FFF03E08AA102A810F02AFF02A9606DE4
:1015800010F07AFC0AB0BDE8F08170B588B004466E
:101590000D46164694F85C0000F0080060B194F81F
:1015A0005C0020F0080084F85C0033462A467EA1E7
:1015B000684610F00DFF03E07DA1684610F008FFBB
:1015C0006946606D10F058FC08B070BD70B588B009
:1015D00004460D46164694F85C0000F0100060B119
:1015E00094F85C0020F0100084F85C0033462A4632
:1015F00070A1684610F0ECFE03E071A1684610F09F
:10160000E7FE6946606D10F037FC08B070BD10B59C
:10161000044654F8540F10F03BFCA080A088C0F59D
:101620001970E080543C10BD0021426D1170A0F88B
:1016300058104FF41971A0F85A10704790F85C20B8
:101640000A4380F85C20704770B55F4C002054342A
:10165000A0804FF41970E080002020724FF41970C0
:1016600010F08DFE44F8540900BF2546574A5849EA
:10167000284610F0C1FE70BD303A00004445425586
:10168000473A0900466174206D6F756E74205344AB
:1016900063617264204F4B210D0A00004661742083
:1016A0006D6F756E74205344636172642066616966
:1016B0006C6564210D0A00003000000025732E7453
:1016C0007874000066696C65202573206973206159
:1016D0006C7265616479206578697374210D0A0004
:1016E000257325642E747874000000007772697485
:1016F000652066696C65206661696C656421657248
:10170000726F723A25642C7365746E756D3A256438
:101710002C207265616C6E756D3A25642E0D0A0081
:1017200077726974652066696C652073756363659B
:101730006564210D0A00000066696C652073796E8E
:1017400063206661696C656421206572726F723A0C
:101750002564200D0A00000066696C6520636C6FCB
:10176000736564206661696C656421206572726FBF
:10177000723A2564200D0A00256409256409256450
:101780000925640925640925640925640900000008
:101790002564092564092564092564090000000001
:1017A00009090909000000002564092564090000F1
:1017B000090900002564092564090D0A00000000DC
:1017C00009090D0A00000000E831002000000008AF
:1017D000D522010810B54FF4E13003F08BFF00F083
:1017E000D1F900F041FA00F05BFA124800F034F849
:1017F00019E000BF10A003F0E1FF11A010F0D8FD28
:1018000014A003F0DBFF00BF4FF4FA7003F04CFFAD
:1018100000BF09A003F0D2FF0EA010F0C9FD0DA07B
:1018200003F0CCFF00BF00F0FBFF0028E1D100F087
:10183000ECF910BD2C00002044454255473A090000
:1018400053442043617264204572726F72210D0A05
:10185000000000000D0A000010B598B004460121F8
:10186000782002F097FC0121084602F0CBFC4CF2F4
:10187000B370169002208DF85C0000208DF85E0099
:1018800003208DF85D0001208DF85F0016A9B64891
:1018900002F0E2F94FF68370169002208DF85C009A
:1018A00000208DF85E0003208DF85D0001208DF88A
:1018B0005F0016A9AD4802F0CFF94FF23F00169035
:1018C00002208DF85C0000208DF85E0003208DF86A
:1018D0005D0001208DF85F0016A9A54802F0BCF953
:1018E0003F20169002208DF85C0000208DF85E00ED
:1018F00003208DF85D0001208DF85F0016A99D483A
:1019000002F0AAF90C220021974802F030FA0C22CA
:101910000121954802F02BFA0C220421924802F092
:1019200026FA0C220521904802F021FA0C22072108
:101930008D4802F01CFA0C2208218B4802F017FA9D
:101940000C220921884802F012FA0C220A2186484A
:1019500002F00DFA0C220E21834802F008FA0C2244
:101960000F21814802F003FA0C2200217F4802F087
:10197000FEF90C2201217D4802F0F9F90C22072121
:101980007A4802F0F4F90C220821784802F0EFF9C5
:101990000C220921754802F0EAF90C220A21734849
:1019A00002F0E5F90C220B21704802F0E0F90C225C
:1019B00011466E4802F0DBF90C220D216B4802F053
:1019C000D6F90C220E21694802F0D1F90C220F2120
:1019D000664802F0CCF90C220021654802F0C7F9F4
:1019E0000C220121624802F0C2F90C220221604857
:1019F00002F0BDF90C2203215D4802F0B8F90C2277
:101A000004215B4802F0B3F90C220521584802F08A
:101A1000AEF90C221146564802F0A9F90C220D210C
:101A2000534802F0A4F90C220E21514802F09FF90C
:101A30000C220F214E4802F09AF90C2200214D4849
:101A400002F095F90C2201214A4802F090F90C228B
:101A50000221484802F08BF90C220321454802F08C
:101A600086F90C220421434802F081F90C22052159
:101A7000404802F07CF9002000900190062002907E
:101A8000002003900490059006900790089009901C
:101A900010200A9000200B900D900C900E900F904B
:101AA0004FF4805010900020119012901390CDF8B8
:101AB00050D0CDF854D007A802F04FFF01210020EC
:101AC00002F0D6FF18B010BD30B508E014884568A4
:101AD00025F811404C1CE1B2921C5C1EE3B2002BB5
:101AE000F4D130BD30B508E01468056845F82140F0
:101AF0004C1CE1B2121D5C1EE3B2002BF4D130BDD0
:101B000010B508E0446834F8114022F8024B4C1C30
:101B1000E1B25C1EE3B2002BF4D110BD10B507E0BA
:101B2000046854F8214010C24C1CE1B25C1EE3B2C0
:101B3000002BF5D110BD436823F8112070470368CE
:101B400043F8212070470246506830F81100704772
:101B50000246106850F82100704707480749084AB4
:101B60000160426000BF7047000C0240001002405C
:101B700000140240001802402C0000200000006009
:101B80002C0100601CB50121022002F003FB4FF480
:101B90007840009001208DF8040000208DF80600A8
:101BA00003208DF805006946044802F055F84FF40B
:101BB0007841024802F0CEF81CBD0000000402404B
:101BC00038B508F039FC24480078012805D10020F8
:101BD000214908702149086004E001201E4908706D
:101BE0001E4908601E48FFF79AF8044604F00100F9
:101BF00028B16A464FF400711A480CF002FC02202A
:101C000003F0F3F908F029FC38BD0EB50121880373
:101C100002F01AFB0121084602F021FC022000908C
:101C200000208DF804000C208DF8050001208DF8AF
:101C30000600684603F068F907208DF808000220C6
:101C40008DF809008DF80A0001208DF80B0002A81C
:101C500001F011FF0EBD0000340000208802424256
:101C6000502C0020002C00201CB50121082002F07F
:101C700091FA0820009001208DF8040000208DF8D2
:101C8000060001208DF805006946044801F0E4FFD4
:101C90000821024802F05CF81CBD0000000C024064
:101CA0001CB50121102002F075FA0C2000900120D3
:101CB0008DF8040000208DF8060001208DF8050045
:101CC0006946044801F0C8FF0C21024802F042F8BE
:101CD0001CBD0000001002400020FE490860091DE4
:101CE0000860091D0860091D0860FA492431086070
:101CF000091D0860091D0860F748F6493831086079
:101D00000020091D0860704701460020012900D00D
:101D100011B9F24B197000E0262070470146ED4AD8
:101D2000121D106820F0FF0008431060704770B566
:101D3000044606E0E7483430056805F0450000B188
:101D400000E0F7E700BF042003F0F4FB20B104201B
:101D500003F0FBFB032070BD012003F0EBFB20B17F
:101D6000012003F0F2FB0120F5E7DA4810300068AB
:101D7000A04201D01020EEE740F2FF5003F0E5FB57
:101D8000D4481430006808210840C0B2E3E72DE9C8
:101D9000FC4107460D4600260024002000900190DB
:101DA0000820CF490860102048604020886000204B
:101DB000C8604FF480600861084603F028FB1020DB
:101DC000FFF7B5FF044614B12046BDE8FC81C548C5
:101DD00000880004C24908603720486040208860BD
:101DE0000020C8604FF480600861084603F00FFBD4
:101DF0003720FFF79CFF04460CB12046E5E74FF083
:101E0000FF30B9490860082048603020886002200F
:101E1000C8600020086101204861084603F023FBE8
:101E20000020AF49086033204860402088600020CF
:101E3000C8604FF480600861084603F0E8FA332078
:101E4000FFF775FF04460CB12046BEE70DE04FF4E6
:101E5000001003F06FFB40B19E48803000684DF8E1
:101E60002600761C022E00D307E09A483430006822
:101E700040F22A6108400028E9D000BF082003F0A2
:101E800059FB20B1082003F060FB04209DE70220ED
:101E900003F050FB20B1022003F057FB022094E72F
:101EA000202003F047FB20B1202003F04EFB06204A
:101EB0008BE74FF4007003F03DFB28B14FF4007046
:101EC00003F043FB072080E740F2FF5003F03DFBA7
:101ED00000980006009901F47F4140EA0120009932
:101EE00001F47F0140EA1120009940EA1160686026
:101EF00001980006019901F47F4140EA012001990F
:101F000001F47F0140EA1120019940EA1160286044
:101F100020465AE77CB50546002400200090019039
:101F200000260DB1022600E000266A481430006841
:101F300000F0007008B10E207CBD6A49098888B2A3
:101F40006946FFF724FF04460CB12046F4E70198E8
:101F500000F4802060B36348008800046049086092
:101F600037204860402088600020C8604FF48060BF
:101F70000861084603F04BFA3720FFF7D8FE044605
:101F80000CB12046D8E75648066006205449486000
:101F9000402088600020C8604FF4806008610846D7
:101FA00003F035FA0620FFF7C2FE04462046C3E7D9
:101FB0002520C1E770B5044600254C480078032869
:101FC00002D12725284670BD4848007838B14748D7
:101FD0000078012803D045480078022819D1B4F5CB
:101FE000805F02D127252846EDE7E0B2FFF792FF98
:101FF000054675B93748001D006820F4C0503549C2
:10200000091D08600846006820430860084600680B
:1020100008602846D7E710B5044631480460072019
:102020002F494860402088600020C8604FF48060DD
:102030000861084603F0EBF90720FFF778FE10BDB2
:10204000F0B5014600200022284B1B7881F856305D
:10205000244B1B88A1F85430254B1B681A0E93099A
:102060000B70C2F383034B7002F003038B70204BA1
:102070001B68C3F30742CA701D4B1B88C3F30722BA
:102080000A711B4B1A784A715B681A0E1301CB80D8
:10209000174B5B68C3F30742CB8843EA1213CB802C
:1020A00002F00F030B72124B9B88C3F30722D30974
:1020B0004B72C2F380138B72C2F34013CB72C2F324
:1020C00000130B7300234B73084B1B78C3B1074BF2
:1020D0001B780FE0002C0140FF07C00040000020EB
:1020E000603200203C0000207432002038000020C4
:1020F0008C320020012B03D0FE4B1B78032B4FD1D9
:1021000093071B0D0B61FC4B1A790B6943EA8203A1
:102110000B61F94B9B681A0E0B6943EA92130B6132
:10212000C2F3C2030B7502F007034B75F24B9B68B9
:10213000C3F3074253098B75C2F38203CB75930730
:102140005B0F0B76EC4B1B89C3F307220B7E43EA34
:10215000D2130B760B695B1C0024C1E912340B7E91
:102160009B1C012404FA03F3DC17D1E91256A5FBEA
:10217000037C06FB03C305FB0433C1E912730C7A2D
:102180000123A3400B650024D1E912650B6DA6FB6A
:10219000037C05FB03C306FB0433C1E912732EE085
:1021A000D44B1B78022B2AD1D34B1A7993069B0A66
:1021B0000B61D14B9B681A0E0B6943EA02230B613A
:1021C000CD4B9B68C3F307420B6913430B61CA4BAA
:1021D0001B89C3F307220B695B1C4FF40074A3FB3C
:1021E00004464FF480630025A4FB037C06FB03C375
:1021F00004FB0533C1E912734FF400730B65C2F39E
:10220000801301F8193F93065B0E4B70BA4B1A7A94
:102210004B7843EAD2134B7002F07F038B70B64BBE
:10222000DB681A0ED309CB70C2F341130B71C2F3F2
:1022300082034B7193071B0F8B71AF4BDB68C3F3AA
:1022400007428B7943EA92138B71C2F34013CB712F
:1022500000230B7202F001034B72A74B9B89C3F35F
:102260000722D3098B72C2F38013CB72C2F34013DF
:102270000B73C2F300134B73C2F381038B7302F031
:102280000303CB739C4B1A7B53080B7401234B74D1
:102290009A4B1B681A0ECA741939984B1B68C3F302
:1022A00007421402CC85954B1B88C3F30722CB8DC4
:1022B0001343CB85914B1A7814060C635B681A0E96
:1022C0000B6B43EA02440C638C4B5B68C3F307421D
:1022D0000B6B43EA02240C63884B9B88C3F30722F1
:1022E0000B6B13430B63854B1A7934235A54834B7E
:1022F0009B681A0E35235A54804B9B68C3F30742E0
:1023000014068C637D4B1B89C3F307228B6B43EA56
:1023100002448C63794B1A7A8B6B43EA02248C63F8
:10232000764BDB681A0E8B6B13438B63734BDB6846
:10233000C3F307423C235B5C43EA12143C235C5426
:1023400013071C0DCC876D4B9B89C3F30722CB8FE2
:102350001343CB87694B1A7B540840235C540124F8
:1023600041235C54F0BD70B500264FF4803505E084
:102370006348046804F0450000B103E02800A5F1BB
:102380000105F5D100BF15B104F0040028B1032602
:10239000042003F0DAF8304670BD012003F0CAF8DB
:1023A00018B10126012003F0D0F840F2FF5003F0ED
:1023B000CCF83046F0E72DE9F04105460E464FF0E7
:1023C000000805E04E48076807F0450000B100E04E
:1023D000F8E700BF042003F0ADF828B1042003F0B3
:1023E000B4F80320BDE8F081012003F0A3F820B188
:1023F000012003F0AAF80120F4E7414824380068DE
:10240000A84201D01020EDE740F2FF5003F09DF804
:102410003B482038046804F4604018B9200C308030
:102420004046DFE704F4005008B11320DAE704F473
:10243000804008B11020D5E704F4004008B10F2017
:10244000D0E74046CEE738B500240120009002F0E6
:10245000D8FF10B92524204638BD26480078042826
:1024600025D000202749086002204860C0208860ED
:102470000020C8604FF480600861084602F0C7FF82
:10248000FFF771FF04460CB12046E5E71C482038F1
:1024900000681A4908601A481C38006848601848E3
:1024A000183800688860164814380068C8601148F9
:1024B000007858B10F480078012807D00D480078FF
:1024C000062803D00B480078022821D100200D49AE
:1024D000086003204860402088600020C8604FF4F6
:1024E00080600861084602F092FF69460320FFF70A
:1024F00062FF09E0380000208C3200209C3200206E
:10250000342C01406032002004460CB12046A3E781
:10251000FE480078032816D1BDF800000004FC49ED
:10252000086003204860402088600020C8604FF4A5
:1025300080600861084602F06AFFFFF714FF044656
:102540000CB1204688E7F148007804282AD0BDF86D
:102550000000F0490860BDF800000004EC49086084
:1025600009204860C02088600020C8604FF4806067
:102570000861084602F04BFFFFF7F5FE04460CB178
:10258000204669E7E4480068E4490860E248001D25
:1025900000684860E048083000688860DE480C3019
:1025A0000068C860002057E710B506E0DA48203020
:1025B000046804F0450000B100E0F7E700BF042024
:1025C00002F0B8FF20B1042002F0BFFF032010BDCD
:1025D00040F2FF5002F0B9FF0020F8E770B5002686
:1025E0004FF4803506E0CC482030046804F0450004
:1025F00000B103E02800A5F10105F4D100BF15B139
:1026000004F0040028B10326042002F09EFF3046A7
:1026100070BD04F0400018B10026402002F095FF84
:102620003046F5E770B500254FF4803404E0802093
:1026300002F080FF00B103E02000A4F10104F6D114
:1026400000BF0CB9032070BD40F2FF5002F07DFFC7
:102650002846F8E72DE9F04700270024002600254A
:10266000A046A1467620AE49087500200860486063
:102670008860C8600861084602F09FFE032002F0EF
:10268000BCFEA5481038006840F48070A24910399B
:10269000086000BF12E000209D4908604860886023
:1026A000C8604FF480600861084602F0B0FEFFF792
:1026B000B9FF044604B903E0781CC7B24A2FEADB2D
:1026C00000BF14B12046BDE8F0874FF4D5709049A3
:1026D000086008204860402088600020C8604FF4EF
:1026E00080600861084602F092FEFFF777FF04461B
:1026F00024B90120854908704FF0804900208449A1
:10270000086037204860402088600020C8604FF48F
:1027100080600861084602F07AFE3720FFF707FB69
:102720000446002C4BD134E0002079490860372062
:102730004860402088600020C8604FF480600861D5
:10274000084602F064FE3720FFF7F1FA04460CB1A8
:102750002046B8E7734849EA00006D49086029201F
:102760004860402088600020C8604FF480600861A5
:10277000084602F04CFEFFF717FF04460CB1204656
:10278000A1E765480668012080EAD67080F001085C
:102790006D1CB8F1000F03D14FF6FF708542C3D313
:1027A0004FF6FF70854202D31B2420468BE706F0CC
:1027B0008040060032D00220544908702EE01CE010
:1027C0005948534908600120486040208860002033
:1027D000C8604FF480600861084602F018FEFFF7F9
:1027E000E3FE04460CB120466DE74B480668012025
:1027F00080EAD67080F001086D1CB8F1000F03D19B
:102800004FF6FF708542DBD34FF6FF70854202D34F
:102810001B24204657E703203C490870204652E716
:102820003EB5002400250121404801F0B3FC012100
:10283000C80201F009FD0121C80201F05AFD4FF460
:10284000F850019002208DF808008DF80900002052
:102850008DF80A0001208DF80B0001A9344801F021
:10286000FBF90420019001A9324801F0F5F90C228E
:1028700008212F4801F07BFA0C2209212C4801F095
:1028800076FA0C220A212A4801F071FA0C220B2157
:10289000274801F06CFA0C221146254801F067FA2E
:1028A0000C220221234801F062FA00214FF400605B
:1028B00001F01FFDFFF710FA31208DF80000022013
:1028C0008DF8010003208DF8020001208DF803002F
:1028D000684601F0D0F8FFF7BDFE044614B9FFF7D3
:1028E000B2FD04461CB91448FFF7AAFB044634B9EC
:1028F0001149B1F854100804FFF78DFB044624B9C0
:102900004FF40060FFF756FB044617E03800002044
:10291000603200203C000020142C01408C3200204A
:1029200048320020000010800080FF800C00400032
:1029300000080240000C0240B03200201CB1FE48EA
:102940000078032812D1FD4890F8560020B1FB48CA
:1029500090F85600012801D1022500E00025284604
:10296000FFF7DCF90020FFF7CFF9044620463EBD13
:1029700010B5002002F041FD002010BD70B590B0F0
:1029800004460E46154600BFED4802F060FC0028E4
:10299000FAD1EB4802F032FB4FF000600190E948B9
:1029A0000290039404950020059006904FF48060F7
:1029B0000790800008908000099000200A904FF452
:1029C00040300B9004200C9003200D904FF4000039
:1029D0000E9080100F9001A9D94802F0B1FB202180
:1029E000D74802F0FDFB0121D54802F0E3FB10B00F
:1029F00070BD0146002002E04910421CD0B20129FE
:102A0000FAD170472DE9F84F8146174698460A9C3F
:102A10004FF0000AD3464D464FF0FF36B9F1000F94
:102A200002D12620BDE8F88F0020C649543908603D
:102A3000C1480078022805D10402780A40EAC85744
:102A40004FEA68280020C04988604860401E08603E
:102A5000012048610020C8600861084602F003FDBB
:102A6000B8486C38006800F0007008B10E20D9E753
:102A7000002C21DDB4F5006F1EDC601E2040D8B9AB
:102A80002046FFF7B6FF0090B04804601020AF4921
:102A90004860402088600020C8604FF48060086172
:102AA000084602F0B4FC1020FFF741F98246BAF163
:102AB000000F03D05046B5E72620B3E70098000189
:102AC000A1498860084644604FF0FF30086001204B
:102AD00048610220C86000200861084602F0C3FC7B
:102AE0009A4807601120994948604020886000207A
:102AF000C8604FF480600861084602F088FC11202D
:102B0000FFF715F98246BAF1000F01D0504689E768
:102B10008F48007800285AD1FDF743FB17E04FF4A7
:102B2000004002F007FD70B14FF0000B05E0854852
:102B3000006845F82B000BF1010BBBF1080FF6D331
:102B40002035844E03E00EB904206BE7761E7D48E5
:102B50004C38006840F22A6108400028DFD0082085
:102B600002F0E8FC20B1082002F0EFFC042059E755
:102B7000022002F0DFFC20B1022002F0E6FC02207D
:102B800050E7202002F0D6FC20B1202002F0DDFC2E
:102B9000062047E74FF4007002F0CCFC28B14FF458
:102BA000007002F0D2FC07203CE703E065480068B3
:102BB00028602D1D4FF4001002F0BCFC0028F5D158
:102BC000FDF7F1FA40F2FF5002F0BFFC39E0604837
:102BD0000078012835D100205F4908705F490870EE
:102BE0005F49087057484438006840F22A3108436A
:102BF00054494439086053485438006840F008008C
:102C0000504954390860002221464846FFF7B6FE75
:102C100000E0761E4A485838006800F0006038B975
:102C20004F48007820B94C48007808B9002EF0D100
:102C30000EB90420F6E64848007810B1464890F8EE
:102C400000A05046EEE62DE9FF5F17469846DDE905
:102C50000E464FF00009CA464FF0FF354149009833
:102C6000086000203749543908603348007802284A
:102C700005D10402780A40EAC8574FEA68280020C4
:102C8000314988604860401E08600120486100208A
:102C9000C8600861084602F0E6FB2A486C38006804
:102CA00000F0007018B10E2004B0BDE8F09F002CB9
:102CB00021DDB4F5006F1EDC601E2040D8B920462F
:102CC000FFF797FE83462148046010201F494860A3
:102CD000402088600020C8604FF48060086108468A
:102CE00002F095FB1020FFF722F88146B9F1000FA2
:102CF00003D04846D8E72620D6E7012E7DD906FB2B
:102D000004F0B0F1007F01D32620CDE74FEA0B108D
:102D10000D49886006FB04F048604FF0FF30086002
:102D2000012048610220C86000200861084602F0C6
:102D30009AFB0648076017E038000020B0320020F8
:102D400058640240802C0140743200206032002020
:102D500040000020FFFF7F004200002041000020D3
:102D600043000020440000201220FA49486040201F
:102D700088600020C8604FF480600861084602F057
:102D800046FB1220FEF7D3FF8146B9F1000F01D0B8
:102D9000484689E7F048007800287DD1FDF701FA20
:102DA0001DE04FF4004002F0C5FBA0B14FF0000A57
:102DB00007E0EA480068EA49096841F82A000AF190
:102DC000010ABAF1080FF4D3E54800682030E4495D
:102DD0000860E44D03E00DB9042065E76D1EDF488F
:102DE0004C38006840F22A3108400028D9D0082029
:102DF00002F0A0FB30B1082000E0A0E002F0A5FB4B
:102E0000042051E7022002F095FB20B1022002F0DD
:102E10009CFB022048E7202002F08CFB20B1202000
:102E200002F093FB06203FE74FF4007002F082FBB4
:102E300028B14FF4007002F088FB072034E709E066
:102E4000C6480068C64909680860C5480068001D92
:102E5000C34908604FF4001002F06CFB0028EFD16A
:102E60004FF4807002F066FB20B3BF48007838B1A1
:102E7000BD480078012803D0BB480078022819D14A
:102E80000020B44908600C20486040208860002081
:102E9000C8604FF4806000E013E00861084602F06B
:102EA000B6FA0C20FEF743FF8146B9F1000F01D0BE
:102EB0004846F9E6FDF777F940F2FF5002F045FB8E
:102EC0003DE0A5480078012839D10020A7490870C5
:102ED0000120A74908700020A64908709F4844387F
:102EE000006840F22A3108439C49443908609B48F5
:102EF0005438006840F0080098495439086006FBCF
:102F000004F100220098FFF739FD00E06D1E9A4899
:102F1000006800F0006008B9002DF7D10DB9042059
:102F2000C2E600BF9348007818B99048007800289E
:102F3000F8D08E48007810B18C4890F80090484640
:102F4000B2E61CB504460020019000908B48008832
:102F50000004804908600D204860402088600020FF
:102F6000C8604FF480600861084602F050FA7B4860
:102F70004C380068009003E078484C3800680090B6
:102F8000009800F045000028F6D0012002F0D2FAA7
:102F900020B1012002F0D9FA01201CBD042002F06A
:102FA000C9FA20B1042002F0D0FA0320F5E76B48FB
:102FB000703800680D2801D01020EEE740F2FF5075
:102FC00002F0C3FA65486C38006801900198C0F3BC
:102FD000432020700020E0E72DE9FF5F86B0174610
:102FE0009846149D002600200590049000248146F8
:102FF0000390824602900195DDF818B0DDF818B014
:10300000BBF1000F03D126200AB0BDE8F09F0020DD
:103010005249543908605A4988604860401E086027
:10302000012048610020C8600861084602F01BFAD0
:103030004A486C38006800F0007008B10E20E3E7E1
:1030400049480078022805D10502780A40EAC857A5
:103050004FEA6828002D1FDDB5F5006F1CDC681EE7
:103060002840C8B92846FFF7C4FC059039480560D8
:10307000102038494860402088600020C8604FF424
:1030800080600861084602F0C2F91020FEF74FFE8A
:1030900006461EB13046B7E72620B5E73748008818
:1030A00000042C4908600D20486040208860002002
:1030B000C8604FF480600861084602F0A8F90D204E
:1030C000FEF735FE06460EB130469DE723486C38C4
:1030D000006803904FF0FF341CE0641E274800880E
:1030E00000041C4908600D204860402088600020D2
:1030F000C8604FF480600861084602F088F90D202E
:10310000FEF715FE06460EB130467DE713486C38D3
:1031100000680390039800F4807008B9002CDCD19B
:103120000CB9292070E70B4807601820094948604E
:10313000402088600020C8604FF480600861084625
:1031400002F065F91820FEF7F2FD0646D6B13046CA
:103150005AE700006032002040000020802C01402F
:1031600044000020FFFF7F003800002042000020C4
:103170004100002043000020006402403C00002089
:10318000743200200020F849087005980001F749C2
:103190008860084645604FF0FF30086001204861B4
:1031A0000020C8600861084602F05DF94FF0FF3466
:1031B000EF48007800287CD1FCF7F3FF43E04FF4A0
:1031C000804002F0B7F9C8B30198A0EB09002028AD
:1031D00021D20198A0EB090000F0030020B901986A
:1031E000A0EB0900800804E00198A0EB090080082A
:1031F000401C02904FF0000A09E0DE49DBF80000B5
:1032000008600AF1010A0BF1040B09F104090298A4
:103210008245F2D30FE04FF0000A05E05BF82A0088
:10322000D44908600AF1010ABAF1080FF6D30BF18C
:10323000200B09F120096FF0404404E0FFE70CB9CE
:103240000420E1E6641ECB484C38006840F21A6165
:1032500008400028B3D0082002F06CF920B1082003
:1032600002F073F90420CFE6022002F063F920B1E6
:10327000022002F06AF90220C6E6102002F05AF994
:1032800020B1102002F061F90520BDE64FF4007076
:1032900002F050F930B14FF4007002F056F90720F7
:1032A000B2E606E0FCF77FFF40F2FF5002F04DF976
:1032B00043E0AF48007801283FD10020AE490870B4
:1032C000A9490870AD490870AA484438006840F21E
:1032D0001A310843A7494439086040222946069814
:1032E000FFF74CFBA3485438006840F00800A149A0
:1032F0005439086000E0641EA148006800F00060D6
:1033000008B9002CF7D11CB9FFF78AFA04207BE634
:103310004FF0FF3400E0641E9848007820B99648CA
:10332000007808B9002CF6D10CB904206CE692485C
:10333000007810B19048007866E640F2FF5002F045
:1033400004F904A8FFF7FDFD064603E004A8FFF713
:10335000F8FD06463EB99DF810000728F6D09DF806
:1033600010000628F2D030464EE62DE9FF5F84B00B
:10337000DDE91247002600200390029000258046D8
:103380008146019007FB04FBDDF810A0DDF810A0DA
:10339000BAF1000F03D1262008B0BDE8F09F00204D
:1033A000744954390860714988604860401E08605B
:1033B000012048610020C8600861084602F053F807
:1033C0006C486C38006800F0007008B10E20E3E72C
:1033D0006C480078022808D10402DDE90601400AA1
:1033E00040EAC1504912CDE90601002C1FDDB4F5B9
:1033F000006F1CDC601E2040C8B92046FFF7F9FAB8
:1034000003906148046010205F4948604020886054
:103410000020C8604FF480600861084601F0F7FFA3
:103420001020FEF784FC06461EB13046B4E7262085
:10343000B2E7012F6FD907FB04F0B0F1007F01D391
:103440002620A9E74F48007838B14E480078012877
:1034500003D04C48007802282DD14C480088000445
:103460004949086037204860402088600020C860D3
:103470004FF480600861084601F0C9FF3720FEF76D
:1034800056FC06460EB1304686E73F4807601720D7
:103490003D494860402088600020C8604FF480604B
:1034A0000861084601F0B3FF1720FEF740FC06460E
:1034B0000EB1304670E7344906980860192048601C
:1034C000402088600020C8604FF480600861084692
:1034D00001F09DFF1920FEF72AFC06460EB130468A
:1034E0005AE7039800012149886007FB04F048600F
:1034F0004FF0FF300860012048610020C86008617B
:10350000084601F0B0FF1A480078002872D1451E25
:10351000FCF747FE54E0F8E04FF4804002F00AF870
:10352000B0B3ABEB0800202833D2ABEB080000F0BF
:10353000030018B9ABEB0800800803E0ABEB080010
:103540008008401C01904FF0000909E00949DAF8B1
:103550000000086009F101090AF1040A08F10408F1
:1035600001988145F2D324E041000020743200200C
:1035700040000020802C0140420000204300002039
:103580000064024038000020603200203C0000202F
:1035900012E04FF0000905E05AF82900F8490860E8
:1035A00009F10109B9F1080FF6D30AF1200A08F16F
:1035B00020086FF0404503E00DB90420ECE66D1ED5
:1035C000EF484C38006840F21A3108400028A3D078
:1035D000082001F0AFFF20B1082001F0B6FF042061
:1035E000DAE6022001F0A6FF28B1022001F0ADFFCB
:1035F0000220D1E640E0102001F09CFF20B1102015
:1036000001F0A3FF0520C7E64FF4007001F092FF20
:1036100028B14FF4007001F098FF0720BCE64FF48A
:10362000807001F087FF00B3D648007838B1D548E4
:103630000078012803D0D3480078022815D1002053
:10364000D14908600C204860402088600020C86094
:103650004FF480600861084601F0D9FE0C20FEF7A7
:1036600066FB06460EB1304696E6FCF79CFD40F23E
:10367000FF5001F06AFF48E0C4480078012844D1B7
:103680000020C34908700120C24908700020C249C7
:103690000870BB484438006840F21A310843B84902
:1036A0004439086007FB04F140220498FFF766F9EB
:1036B000B3485438006840F00800B14954390860F4
:1036C0004FF0FF3500E06D1EB448006800F0006068
:1036D00008B9002DF7D11DB9FFF7A2F804205BE669
:1036E0004FF0FF3500E06D1EAB48007820B9A848C8
:1036F000007808B9002DF6D10DB904204CE6A44895
:10370000007810B1A248007846E640F2FF5001F080
:103710001CFF02A8FFF715FC064603E002A8FFF70E
:1037200010FC06463EB99DF808000728F6D09DF823
:1037300008000628F2D030462EE610B54FF480700F
:1037400001F0F8FE88B393480078012814D10020D6
:103750008D4908600C204860402088600020C860C7
:103760004FF480600861084601F051FE0C20FEF71E
:10377000DEFA8749087002E0002085490870804819
:103780004838006840F480707D4948390860081D59
:1037900000684CF23A318843794944390860012085
:1037A0007D4908707A48007810BDFFE7022001F0DB
:1037B000C1FE78B1022001F0C8FE714844380068AB
:1037C0004CF23A3188436E4944390860022070490E
:1037D0000870E9E7082001F0ADFE78B1082001F09B
:1037E000B4FE6748443800684CF23A318843644973
:1037F00044390860042066490870D5E7202001F0AC
:1038000099FE78B1202001F0A0FE5D4844380068A0
:103810004CF23A3188435A494439086006205C49E1
:103820000870C1E7102001F085FE78B1102001F08A
:103830008CFE5348443800684CF23A318843504972
:1038400044390860052052490870ADE74FF4007014
:1038500001F070FE80B14FF4007001F076FE484830
:10386000443800684CF23A3188434549443908608D
:1038700007204749087097E7002095E710B5FFF744
:103880005CFF10BD70B50446002514B926252846F6
:1038900070BD4348008800043B4908600D20486023
:1038A000402088600020C8604FF4806008610846AE
:1038B00001F0ADFD0D20FEF73AFA05460DB12846A0
:1038C000E6E72F486C38006820602846E0E708B536
:1038D000002000906846FFF7D5FF08B1FF2008BD23
:1038E0000098C0F34320FAE72DE9FE4F83460E46C9
:1038F000914600200290002534462248007818B1F5
:10390000680240EAD45564020BF00300F0B14FF0B6
:10391000000A18E04FF4007000904FEA4A2007199F
:1039200045EBE0733A461F48FFF76CF802904FF4FE
:1039300000721C4958460EF08DFA0BF5007B0AF117
:10394000010000F0FF0ACA45E4DB16E0B9F1010FFF
:1039500009D14FF4007022462B4600905846FFF7DD
:1039600051F8029009E04FF4007022462B46CDE951
:1039700000095846FFF767F902900298BDE8FE8FEC
:10398000802C0140380000206032002040000020E0
:10399000420000204100002043000020006402405B
:1039A0003C000020083300202DE9FE4F06468946E2
:1039B00092460020029000254C462148007818B11C
:1039C000680240EAD455640206F00300F0B14FF0FB
:1039D000000B18E04FF4007231461A480EF03AFA24
:1039E0004FF4007000904FEA4B20071945EBE0734D
:1039F0003A461448FFF7F0FA029006F500760BF10C
:103A0000010000F0FF0BD345E4DB16E0BAF1010F33
:103A100009D14FF4007022462B4600903046FFF744
:103A2000DBFA029009E04FF4007022462B46CDE904
:103A3000000A3046FFF799FC02900298BDE8FE8F1D
:103A40003800002008330020064880470648004719
:103A5000FEE7FEE7FEE7FEE7FEE7FEE7FEE7FEE73E
:103A6000FEE7FEE7A502000889010008324901438C
:103A7000324A1160704770B5002100230F22C478CC
:103A80001CB32E4C246804F4E064C4F5E064C4F371
:103A90000721C1F10404E3B20A4144789C40E1B239
:103AA0008478144021430C07210E254C057861557C
:103AB000047804F01F050124AC4005786D11AD00B9
:103AC00005F1E025C5F8004109E0047804F01F0580
:103AD0000124AC401B4D0678761145F8264070BD98
:103AE000194A0A400243154B1B1F1A60704739B12F
:103AF000124A121D12680243104B1B1D1A6006E089
:103B00000E4A121D126882430C4B1B1D1A6070472F
:103B1000042808D14FF0E021096941F004014FF079
:103B2000E022116107E04FF0E021096921F0040172
:103B30004FF0E022116170470000FA050CED00E043
:103B400000E400E080E100E080FFFF1F10B50446C4
:103B50009848844208D10121084600F086FB0021E4
:103B6000012000F082FB76E09348844208D10121D5
:103B7000022000F07AFB0021022000F076FB6AE0D0
:103B80008E48844208D10121042000F06EFB002100
:103B9000042000F06AFB5EE08948844208D10121DC
:103BA000082000F062FB0021082000F05EFB52E0DC
:103BB0008448844208D10121102000F056FB0021E6
:103BC000102000F052FB46E07F48844208D10121DA
:103BD000202000F04AFB0021202000F046FB3AE0C4
:103BE0007A48844208D10121402000F03EFB0021A8
:103BF000402000F03AFB2EE07548844208D10121B4
:103C0000802000F032FB0021802000F02EFB22E01B
:103C10007048844208D10121801500F026FB002164
:103C2000A01500F022FB16E06B48844208D1012168
:103C3000401500F01AFB0021601500F016FB0AE0A9
:103C40006648844207D10121001500F00EFB0021D7
:103C5000201500F00AFB10BDF0B50A460021002334
:103C6000002400BF3DE0012505FA01F3156805EACF
:103C700003049C4234D105684F000326BE40B5437F
:103C8000056015794E00B540066835430560157925
:103C9000012D02D01579022D16D185684F0003261B
:103CA000BE40B543856055794E00B54086683543C2
:103CB0008560456801268E40B54345604568967924
:103CC0008E40B6B235434560C5684F000326BE40FE
:103CD000B543C560D5794E00B540C6683543C5606B
:103CE000491C1029BFD3F0BD4FF6FF7101600021C0
:103CF000017141718171C171704708B54FF4803213
:103D00000092009A0A430092009AC261C161009A2F
:103D1000C261C2690092C269009208BD02460020D9
:103D200013690B400BB1012000E0002070470146F1
:103D3000086980B270470246002053690B400BB1FE
:103D4000012000E0002070470146486980B27047BA
:103D500001837047418370470AB1018300E04183CA
:103D600070474161704742694A4042617047F0B50F
:103D7000002300244D07ED0E02FA05F3CE1000F1EA
:103D8000200555F826504E07F70E0F26BE40B543C6
:103D9000CF1000F1200646F82750CE1000F1200584
:103DA00055F8265045EA0304CE1000F1200545F8E9
:103DB0002640F0BD0000024000040240000802401E
:103DC000000C0240001002400014024000180240A3
:103DD000001C024000200240002402400028024053
:103DE000F948006840F00100F74908600020F649F2
:103DF00008310860F4480068F4490840F249086056
:103E0000F348091D0860F348EF4984310860F04821
:103E10001038091D0860EC48006820F48020EA4949
:103E200008600020E8490C310860E7498C310860DF
:103E300070470021E44A921C1170114608707047C7
:103E400010B501460022002300204A11012A02D1A8
:103E5000DD4C236808E0022A03D1DB4C7034236870
:103E600002E0D94C7434236801F01F02012494400D
:103E70001C400CB1012000E0002010BD38B500202E
:103E800000900024002500BF3120FFF7D9FF054630
:103E90000098401C00900098B0F5A04F01D0002D74
:103EA000F2D03120FFF7CCFF08B1012400E000245C
:103EB000204638BD01460020C34A106820F0F800B3
:103EC00040EAC10010607047C34908607047002194
:103ED000BD4A703211701170012802D004280AD135
:103EE00004E00121B84A7032117005E00521B64A9C
:103EF0007032117000E000BF00BF7047B749086022
:103F0000704770B5049C41EA82150126C6EB530642
:103F100045EA0645054345EA0465AB4E361D356066
:103F200070BDAD4908667047820142EA0172A64B36
:103F300084331A607047A8498866704710B58301BA
:103F400043EA016343EA02739F4C8834236010BD47
:103F5000A14908677047A049C8647047024600201D
:103F6000994B0833186820F0EC6042EA01031843CB
:103F7000954B08331860704702460020924B083377
:103F8000186820F0784042EA010318438E4B08334A
:103F900018607047014600208B4A0832106820F0F4
:103FA000030008431060704787480830006800F03D
:103FB0000C00704701460020834A0832106820F048
:103FC000F000084310607047014600207E4A083226
:103FD000106820F4E050084310607047014600204C
:103FE000794A0832106820F4604040EAC10010604D
:103FF0007047F0B50021002200240225002602238C
:10400000714F08373F6807F00C0121B1042905D032
:10401000082937D105E0724F076036E0714F07601D
:1040200033E0694F3F1D3F68C7F38056664F3F1D21
:104030003F6807F03F036EB16A4FB7FBF3F7DFF855
:1040400088C10CF1040CDCF800C0CCF3881C07FB21
:104050000CF40CE0624FB7FBF3F7DFF86CC10CF126
:10406000040CDCF800C0CCF3881C07FB0CF4564FA2
:104070003F1D3F68C7F301477F1C7D00B4FBF5F788
:10408000076002E0564F076000BF00BF4E4F083781
:104090003F6807F0F0010909534F7A5C0768D74081
:1040A0004760494F08373F6807F4E051890A4E4F8F
:1040B0007A5C4768D7408760434F08373F6807F40A
:1040C0006041490B484F7A5C4768D740C760F0BDF4
:1040D000002100F44072B2F5407F0AD13A4A08321A
:1040E000116821F4F811414A02401143364A08325E
:1040F0001160354A70321268C0F30B031A43324B19
:1041000070331A6070473549443908607047334945
:104110004039086070473649086070470146002002
:10412000294A8C32106820F01F004A1E1043264A8C
:104130008C321060704701460020234A8C32106890
:1041400020F4F8504A1E40EA02201F4A8C321060C8
:104150007047014600201C4A8C32106820F4401041
:1041600008431060704701460020174A8C321068DF
:1041700020F4400008431060704701460020124AB6
:104180008C32106820F440300843106070471949A1
:104190000860704739B10C4A3032126802430A4B4A
:1041A00030331A6006E0084A303212688243064B08
:1041B00030331A607047F9B1034A3432126802434F
:1041C000014B34331A601CE000380240FFFFF6EA6E
:1041D000103000240030002000004742800E47428B
:1041E0000024F40000127A0048000020FFFCFF0FBA
:1041F0005C014742E01147428F4A126882438E4B6E
:104200001A60704739B18C4A121D126802438A4BFA
:104210001B1D1A6006E0884A121D12688243864BF5
:104220001B1D1A60704739B1834A0C321268024371
:10423000814B0C331A6006E07F4A0C3212688243CD
:104240007D4B0C331A60704739B17B4A10321268CB
:104250000243794B10331A6006E0774A1032126835
:104260008243754B10331A60704739B1724A243A51
:1042700012680243704B243B1A6006E06E4A243AEF
:10428000126882436C4B243B1A60704739B16A4A0A
:10429000203A12680243684B203B1A6006E0664AE7
:1042A000203A12688243644B203B1A60704739B150
:1042B000614A1C3A126802435F4B1C3B1A6006E0DD
:1042C0005D4A1C3A126882435B4B1C3B1A60704784
:1042D00039B1594A143A12680243574B143B1A60D9
:1042E00006E0554A143A12688243534B143B1A6055
:1042F000704739B1504A103A126802434E4B103B96
:104300001A6006E04C4A103A126882434A4B103B4E
:104310001A60704739B1484A1C3212680243464B52
:104320001C331A6006E0444A1C3212688243424B36
:104330001C331A60704739B13F4A20321268024379
:104340003D4B20331A6006E03B4A2032126882431C
:10435000394B20331A60704739B1374A243212681A
:104360000243354B24331A6006E0334A2432126884
:104370008243314B24331A60704739B12E4A2C32B4
:10438000126802432C4B2C331A6006E02A4A2C3266
:1043900012688243284B2C331A60704739B1264A81
:1043A000303212680243244B30331A6006E0224A4E
:1043B000303212688243204B30331A607047012834
:1043C00008D11D493C31096841F008011A4A3C32C4
:1043D000116007E018493C31096821F00801164ACC
:1043E0003C321160704739B1134A273A12780243C0
:1043F000114B273B1A7006E00F4A273A1278824386
:104400000D4B273B1A7070470B484030006840F056
:104410008070094940310860704701460020064A13
:10442000283A12680A400AB1012000E000207047D3
:1044300001492639087070473438024010B501210F
:104440008803FFF756FF00214FF48040FFF751FF2C
:1044500010BD1C49086070471B490862704730B5A1
:1044600000228B071C0F0F2303FA04F2154B0833AD
:104470008C1053F824309343124C08348D1044F8B8
:10448000253023468C1053F824308C07240F00FA73
:1044900004F423430B4C08348D1044F8253030BD10
:1044A0000949DC31086070470849086070470020FE
:1044B00004492031096801F4807109B1012000E04C
:1044C00000207047003801400000274200042742C6
:1044D00010B50446FA48844208D101211020FFF7A4
:1044E00008FF00211020FFF704FF57E0F548844241
:1044F00009D101214804FFF7EBFE00214FF4003001
:10450000FFF7E6FE4AE0F048844209D10121880421
:10451000FFF7DEFE00214FF48020FFF7D9FE3DE0DB
:10452000EA48844209D10121C804FFF7D1FE0021E5
:104530004FF40020FFF7CCFE30E0E548844209D17B
:1045400001210805FFF7C4FE00214FF48010FFF79A
:10455000BFFE23E0DF48844208D101212020FFF77D
:10456000C8FE00212020FFF7C4FE17E0DA4884428D
:1045700009D101218807FFF7ABFE00214FF08040F1
:10458000FFF7A6FE0AE0D548844207D10121400585
:10459000FFF79EFE00216005FFF79AFE10BD2DE992
:1045A000FF4705460E460024A14600BFA046B0893D
:1045B00000B100BF2C8A24F44054F08804432C82BC
:1045C000AC8941F20C608443B08831890843718919
:1045D00008430443AC81AC8A24F44074B08904439A
:1045E000AC826846FFF705FDB548854202D0B94860
:1045F000854202D1DDF80C9001E0DDF80890A88931
:1046000000F4004040B109EBC90000EB091031682B
:104610004900B0FBF1F707E009EBC90000EB091016
:1046200031688900B0FBF1F76420B7FBF0F00401BA
:104630002009642101FB1078A88900F4004040B1F2
:10464000322000EBC800B0FBF1F000F0070004439B
:1046500008E0322000EB08106421B0FBF1F000F01C
:104660000F0004432C81BDE8FF874FF41651016011
:1046700000218180C18001810C2141810021818143
:10468000704710B502460020108A20F470600B8835
:104690004C8823438C882343CC88234318431082BF
:1046A00010BD0021018041808180C180704721B10F
:1046B000828942F40052828104E082894DF6FF73C0
:1046C0001A4082817047028B02F47F420283028B80
:1046D0000A430283704721B1828942F400428281F9
:1046E00003E08289C2F30E028281704721B1828A7F
:1046F00042F40062828204E0828A4FF2FF731A4021
:1047000082827047C1F30802828070470146888820
:10471000C0F308007047028A4FF6F0731A40028215
:10472000028A0A430282704721B1828942F0020262
:10473000828104E082894FF6FD731A4082817047BE
:1047400082894FF2FF731A40828182890A438281F3
:104750007047028A4FF6DF731A400282028A0A43C8
:104760000282704721B1028A42F48042028204E050
:10477000028A4BF6FF731A4002827047818941F02A
:1047800001018181704721B1828A42F00802828250
:1047900004E0828A4FF6F7731A4082827047028BD8
:1047A000D2B20283028B42EA01220283704721B116
:1047B000828A42F02002828204E0828A4FF6DF730E
:1047C0001A408282704721B1828A42F010028282AE
:1047D00004E0828A4FF6EF731A4082827047828A21
:1047E0004FF6FB731A408282828A0A4382827047A4
:1047F00021B1828A42F00202828204E0828A4FF66C
:10480000FD731A40828270471AB1838A0B438382F8
:1048100002E0838A8B4383827047F0B5034600240D
:1048200000260025002040F66A17B94200D100BFDB
:104830001846C1F3421401F01F06012707FA06F5D6
:10484000012C01D10C3004E0022C01D1103000E029
:1048500014301AB107682F43076002E00768AF43BE
:104860000760F0BD02460020B1F5007F00D100BF17
:1048700013880B400BB1012000E00020704701F4C9
:104880000072B2F5007F00D100BFCA4302807047BA
:1048900070B50246002400230025002040F66A1669
:1048A000B14200D100BFC1F3421501F01F03012640
:1048B00006FA03F3012D13D19689334017E0000067
:1048C000001001400044004000480040004C0040FF
:1048D000005000400014014000780040007C00407F
:1048E000022D02D1168A334001E0968A33400C1221
:1048F000012606FA04F41688344013B10CB10120E5
:1049000000E0002070BD10B50022002340F66A14BC
:10491000A14200D100BF0A1201249440A3B2DC439B
:10492000048010BD30B943F2DB028100A1F1C04127
:104930000A6005E043F2D2028100A1F1C0410A60A1
:104940006FF07042411C8900A1F1C0410A608100F2
:10495000A1F1C041C1F804217047D0E9011211430F
:10496000C2681143026911434269114382691143CC
:10497000C2691143026A1143426A1143826A1143B8
:10498000C26A1143026B114302689200A2F1C04255
:104990001160816808290BD101688900A1F1C0412B
:1049A000096841F0400201688900A1F1C0410A6034
:1049B000416B0968426B526841EA0211426B92688E
:1049C00041EA0221426B928941EA0241426B128A1A
:1049D00041EA0251426B127D41EA0261426B9269E7
:1049E00011430268521C9200A2F1C0421160C16AD8
:1049F000B1F5804F1BD1816B0968826B526841EA27
:104A00000211826B926841EA0221826B128A41EAAA
:104A10000251826B127D41EA0261826B92691143FD
:104A200002689200A2F1C042C2F8041107E06FF0E0
:104A3000704201688900A1F1C041C1F804217047AA
:104A4000002101600221416000218160C16001619B
:104A500041618161C16101624FF48051416249004D
:104A600081620021C1620163F8494163816370473B
:104A700051B18200A2F1C042126842F001038200EB
:104A8000A2F1C042136009E08200A2F1C0421268A4
:104A9000EF4B1A408300A3F1C0431A6070471028FF
:104AA0000AD118214FF020421166402151664FF083
:104AB000FC319166D16610E01821E64A1160402170
:104AC0004FF02042C2F884104FF0FC31E14A083226
:104AD00011604FF02042C2F88C10704730B50021B1
:104AE00000220023446844F0080485682C43C5680C
:104AF0002C4305692C43456944EA4524856944EA09
:104B00004531C4692468C5696D6844EA0524C569EE
:104B10002D8944EA0544C5692D7B44EA0562046A8F
:104B20002468056A6D6844EA0524056A2D8944EA0B
:104B30000544056A2D7B44EA05630468102C05D101
:104B40004FF020442166A266E36608E0C14C216074
:104B50004FF02044C4F88820BE4C0C34236030BD94
:104B600010210160002141608160C16001614161EB
:104B70008161FC21C2691160C2695160C2699160A2
:104B8000C269D160026A1160026A5160026A916072
:104B9000026AD160704799B1102808D14FF02042C5
:104BA000126E42F004024FF020431A661DE0A94A3B
:104BB000126842F004024FF02043C3F8802014E052
:104BC000102809D14FF02042126EA14BDB1E1A4073
:104BD0004FF020431A6608E09E4A12689C4BDB1E89
:104BE0001A404FF02043C3F88020704799B1102835
:104BF00008D14FF02042126E42F040024FF02043A5
:104C00001A661DE0934A126842F040024FF02043BA
:104C1000C3F8802014E0102809D14FF02042126E12
:104C20008B4B3F3B1A404FF020431A6608E0894AFD
:104C30001268874B3F3B1A404FF02043C3F8802057
:104C4000704701460020102903D14FF02042506FD9
:104C500002E0804A14321068704718207D492031E4
:104C6000086000200906C1F8A4004FF0FC30794923
:104C700028310860091D0860091D08607047016837
:104C800041F01001426841EA4221826841EA423122
:104C9000704A20321160C1680968C268526841EAEE
:104CA0000221C268128941EA0241C268127B41EACC
:104CB0000261684A28321160016909680269526814
:104CC00041EA02210269128941EA02410269127B2A
:104CD00041EA02615F4A2C32116041690968426908
:104CE000526841EA02214269128941EA024142695D
:104CF000127B41EA02614FF02042C2F8B0107047C7
:104D00000021016041608160FC21C2681160C268BD
:104D10005160C2689160C268D16002691160026925
:104D20005160026991600269D16042691160426913
:104D30005160426991604269D160704748B145490C
:104D40002031096841F004014FF02042C2F8A01060
:104D500009E04049203109683D4AD21E11404FF018
:104D60002042C2F8A010704710B5F2B1102807D148
:104D70004FF020435B6E0B434FF02044636632E0FC
:104D8000B0F5807F08D1334B1B1D1B680B434FF0E0
:104D90002044C4F8843026E02E4B24331B680B4398
:104DA0004FF02044C4F8A4301DE0102807D14FF084
:104DB00020435B6E8B434FF02044636613E0B0F5F5
:104DC000807F08D1234B1B1D1B688B434FF0204471
:104DD000C4F8843007E01F4B24331B688B434FF02B
:104DE0002044C4F8A43010BD10B5024600200023B2
:104DF000102A03D14FF02044636E09E0B2F5807FA2
:104E000003D1144C241D236802E0124C243423687F
:104E100003EA01040CB1012000E0002010BD1028BD
:104E200007D14FF02042526E8A434FF020435A661A
:104E300019E0B0F5807F0FD1064A121D12688A432F
:104E40004FF02043C3F884200DE000007C280108C7
:104E5000FEFF0F00800000A0234A12688A434FF033
:104E60002043C3F8A420704770B5024600200023F9
:104E700000240025102A03D14FF02046736E08E06D
:104E8000B2F5807F03D1184E203E336801E0164E04
:104E9000336803EA010403EAD10514B10DB101201E
:104EA00000E0002070BD102808D14FF02042526E63
:104EB00022EAD1024FF020435A6614E0B0F5807F19
:104EC00009D1094A203A126822EAD1024FF0204360
:104ED000C3F8842007E0044A126822EAD1024FF0A6
:104EE0002043C3F8A4207047A40000A0002041493B
:104EF0000860091D0860091D0860091D08603E481A
:104F00003C4914310860704700213A498279002AEF
:104F10003AD00A46126803689A430B461A600A1D83
:104F2000126803689A430B1D1A60027911440A68DB
:104F300003681A430A602F4A0832126803689A43CA
:104F40002C4B08331A601A1D126803689A43294BC8
:104F50000C331A604279102A0ED11A1F12680368A6
:104F60001A43244B08331A601A1D126803681A4347
:104F7000204B0C331A600DE01E49427911440A6837
:104F800003681A430A6005E0027911440A6803685D
:104F90009A430A6070470021016001710C21417140
:104FA0000021817170471349103109680143114A8A
:104FB000103211607047014600200E4A1432126808
:104FC0000A400AB1012000E000207047094914316D
:104FD0000860704701460020064A143212680A40F1
:104FE0000AB1012000E00020704702491431086036
:104FF00070470000003C0140FFFF7F00016821F086
:10500000010101600021016041608160C1600161B6
:1050100021214161DB49884204D13D21D94A103A1E
:1050200091608CE0D7491831884205D14FF4746102
:10503000D44A103A916082E0D2493031884205D199
:105040004FF47411CF4A103A916078E0CD4948315D
:10505000884205D14FF07461CA4A103A91606EE0FF
:10506000C8496031884204D1C749C64A103AD16064
:1050700065E0C4497831884204D1C449C14A103A34
:10508000D1605CE0BF499031884204D1C049BD4A3B
:10509000103AD16053E0BB49A831884205D14FF0A6
:1050A0003D51B84A103AD16049E0BA49884204D12A
:1050B0003D21B84A083A116041E0B64918318842AA
:1050C00005D14FF47461B34A083A116037E0B14931
:1050D0003031884205D14FF47411AE4A083A11605C
:1050E0002DE0AC494831884205D14FF07461A94A9E
:1050F000083A116023E0A7496031884204D1A249EF
:10510000A44A121F11601AE0A2497831884204D1E2
:105110009E49A04A121F116011E09E4990318842B9
:1051200004D19B499B4A121F116008E09949A8319C
:10513000884204D14FF03D51964A121F11607047CA
:1051400010B500220268944B1A40CC680B682343C8
:105150004C6923438C692343CC6923430C6A234362
:105160004C6A23438C6A23434C6B23438C6B23434D
:105170001A430260426922F00702D1E90B3423434B
:105180001A4342610B6943604B6883608B68C3605C
:1051900010BD0021016041608160C1600161416119
:1051A0008161C161016241628162C16201634163E7
:1051B0008163704721B1026842F00102026003E09E
:1051C000026822F001020260704721B1026842F4D5
:1051D0000042026003E0026822F40042026070476D
:1051E00021B1026842F02002026003E0026822F06E
:1051F000200202607047416070470146486880B2F3
:10520000704722B1036843F40023036003E003689E
:1052100023F4002303600161704721B1026842F466
:105220008022026003E0026822F48022026070475C
:105230000AB1016100E0C1607047014600200A68C0
:1052400002F400220AB1012000E00020704701466C
:1052500000200A6802F001020AB1012000E00020EB
:105260007047014600204A6902F03800704730B5A7
:1052700003460A4600200024464DAB4202D2414973
:10528000103901E04349103902F000550DB14C6866
:1052900000E00C68414D2C4004EA02050DB10120EC
:1052A00000E0002030BD02463A4B9A4202D2354817
:1052B000103801E03748103801F000531BB1374B6C
:1052C0000B40C36002E0354B0B408360704710B564
:1052D00001F080034BB122B1436943F08003436185
:1052E00003E0436923F08003436180290BD02AB196
:1052F000036801F01E042343036004E0036801F027
:105300001E04A343036010BD70B5024600200024B4
:105310000025204EB24202D21A4B103B01E01D4B39
:10532000103B1F4E0E4036B11E2606EAD1241668E9
:1053300006EA040502E0566906F0800501F0005611
:105340000EB15C6800E01C68144E344004EA0106AB
:1053500016B10DB1012000E0002070BD02460D4BDA
:105360009A4202D20748103801E00A48103801F08A
:1053700000531BB1094B0B40C36002E0074B0B40CD
:1053800083607047106002403D000020400F002005
:1053900000003D20106402403F801CF07D0F7D0F17
:1053A0003C0F3C0F10B50121C802FEF7A2FF0021FF
:1053B0004FF40060FEF79DFF10BD00216C4A11689C
:1053C00047F6FF629143027D83681A4343681A439C
:1053D000C3681A4303681A4303691A431143644AB2
:1053E0001160704700210175016041608160C160FA
:1053F000016170475F49086070475D49091F086097
:1054000070475B48001F006800F0030070470021F0
:10541000574B1B1D02681A601A1D11686FF30A01B1
:10542000D0E901231A43C3681A4303691A4311439D
:105430004F4A08321160704700210160416081606D
:10544000C160016170474A480C300068C0B27047C3
:1054500008B50146002000904548103008440090EF
:105460000098006808BD0021414B203302681A6093
:105470001B1D42681A601A1D116821F0F701D0E95E
:1054800002231A4303691A4343691A431143384AF2
:105490002832116070474FF0FF31016000214160F8
:1054A0008160C16001614161704731482C30006802
:1054B00070472F487C30006870472D497C31086068
:1054C00070472B484430006870472B49086070478C
:1054D0002949091D0860704727490831086070474D
:1054E00025490C31086070472449086070472349FA
:1054F000091D0860704701218143204A083211606C
:1055000070471E490C31086070471B491439086008
:10551000704739B1164A383212680243144B383397
:105520001A6006E0124A383212688243104B383350
:105530001A607047014600200D4A303212680A4056
:105540000AB1012000E000207047094934310860A9
:10555000704701460020064A303212680A400AB1FC
:10556000012000E000207047014934310860704795
:10557000042C0140A0802542A0852542AC81254213
:1055800010B504F059FF0BF0D5FD04F066FF10BD17
:1055900070B504466FF00400FEF7BAFA2046E11732
:1055A00004EB5171C1F3C701454A1170E11704EBD7
:1055B0005171CD10434800684349B1FBF0F04543B9
:1055C000404800684FF47A71B1FBF0F03F49088021
:1055D0004FF0E020006940F002004FF0E021086148
:1055E00008464561006940F00100086170BD2DE981
:1055F000F843074600264FF0E020D0F814903048DA
:10560000007807FB00F800BF684604F0CFFF4FF0BA
:10561000E020856911E04FF0E0208469AC420CD0B5
:10562000AC4202D2281B064403E0A9EB0400284444
:1056300006442546464500D300E0ECE700BF684637
:1056400004F0FEFFBDE8F88338B504462048007832
:10565000012816D11F48007898B91C480088844258
:1056600008DB1A48008894FBF0F56A4608212846B2
:105670000BF0D4FA1548008894FBF0F100FB1140C0
:1056800084B24FF47A7104FB01F0FFF7B0FF38BD2C
:1056900007E00A2101E04A1ED1B20029FBDC421ECC
:1056A00090B20028F5DC704700B5034604E04FF4E3
:1056B0007A70FFF7EDFF5B1E002BF8D100BD0000F4
:1056C000580000200C30010840420F005A00002012
:1056D0009D0000209C000020014600BF704700BFD5
:1056E0005C4A128802F04002002AF9D0C2B2594B3B
:1056F0009A80704710B588B0044601210846FEF72D
:1057000049FD01211020FEF79FFD07220921524883
:10571000FEF72DFB07220A214F48FEF728FB4FF426
:10572000C060069002208DF81C008DF81D0000203E
:105730008DF81E0001208DF81F0006A94648FEF7CF
:105740008BFA02940020ADF80C00ADF80E00ADF815
:105750001000ADF814000C20ADF8120002A93D486D
:10576000FEF71DFF01213B48FEF7A1FF402139480C
:10577000FFF785F8012240F225513648FFF74DF832
:1057800025208DF8040003208DF805008DF8060013
:1057900001208DF8070001A8FEF76DF908B010BDD3
:1057A00010B5044621462B48FEF7ACFF00BF402150
:1057B0002848FFF757F80128F9D110BD10B5044665
:1057C00003E02078FFF7ECFF641C20780028F8D174
:1057D00010BD10B504F030FE40F225511D48FFF712
:1057E00057F810B31B48FEF791FFC4B21B4800885E
:1057F00000F40040C8B91948008800F4804060B146
:105800000A2C03D000201549088020E013480088A6
:1058100040F400401149088019E00D2C06D10F48D2
:10582000008840F480400D49088010E00B48008853
:10583000C0F30D000A490C5408480088401C074971
:10584000088008460088C72801DD0020088004F091
:1058500004FE10BD00100140000002406000002066
:105860000835002070B50446002514B1012C05D17F
:1058700003E0FCF7D5FF054602E001E0012500BF8B
:1058800000BF0DB1012070BD0020FCE701460020E3
:1058900070472DE9F04105460E4617461C464FF06D
:1058A000000814B90420BDE8F08115B1012D16D10E
:1058B00012E0E2B239463046FEF716F8804607E0BD
:1058C000FCF7AEFFE2B239463046FEF70DF88046EF
:1058D000B8F1000FF4D105E04FF0010802E04FF0FD
:1058E000010800BF00BFB8F1000F01D10020DAE7C6
:1058F0000120D8E72DE9F04105460E4617461C4623
:105900004FF0000814B90420BDE8F08115B1012D55
:1059100016D112E0E2B239463046FEF745F880462D
:1059200007E0FCF77DFFE2B239463046FEF73CF86F
:105930008046B8F1000FF4D105E04FF0010802E015
:105940004FF0010800BF00BFB8F1000F01D10020E7
:10595000DAE70120D8E72DE9F047064689461546E3
:1059600046BBB9F1000F09D0B9F1010F13D0B9F15D
:10597000020F05D0B9F1030F19D106E0002418E099
:105980004FF400702860002413E02548B0F8500060
:10599000288000240DE022484FF400720023D0E953
:1059A000127138460CF025FA2860002401E0042426
:1059B00000BF22E0012E1FD1B9F1000F09D0B9F1CB
:1059C000010F11D0B9F1020F05D0B9F1030F10D1B9
:1059D00006E000240FE04FF40070288000240AE065
:1059E00008202880002406E00E4800882860002453
:1059F00001E0042400BF00E001242046BDE8F08758
:105A00000020704770B5044620460CF049FE05465C
:105A1000284670BD10B5044620460CF019FE10BD96
:105A2000B03200206200002070B503460C4603E04F
:105A300014F8015B03F8015B1500A2F10102F7D134
:105A400070BD30B5034601E003F8011B1400A2F15C
:105A50000102F9D130BDF0B503461C460D460020C9
:105A600000BF1600A2F1010207D014F8017B15F85F
:105A700001CBA7EB0C063000F3D0F0BD024600E0EE
:105A8000521C107810B110788842F9D11078704704
:105A900070B504462079F8B1E56A607801232A469A
:105AA00004F13001FFF726FF08B1012070BD00208E
:105AB0002071206A281AA16988420DD2E67809E08F
:105AC000A0690544607801232A4604F13001FFF7FC
:105AD00011FF761E022EF3D20020E7E770B50446D0
