:020000040800F2
:10000000504800207D140008B1010008B301000829
:10001000B7010008BB010008BF0100080000000094
:10002000000000000000000000000000C301000804
:10003000C50100080000000013CA0008312A0008AA
:1000400097140008971400089714000897140008E4
:100050009714000897140008971400081514000856
:1000600097140008971400089714000897140008C4
:1000700097140008971400089714000897140008B4
:1000800097140008971400089714000897140008A4
:100090009714000897140008971400089714000894
:1000A0009714000897140008971400089714000884
:1000B0009714000897140008971400089714000874
:1000C0009714000897140008971400089714000864
:1000D00097140008532C0008971400089714000880
:1000E0009714000897140008971400089714000844
:1000F0009714000897140008971400089714000834
:100100009714000897140008971400089714000823
:100110009714000897140008971400089714000813
:100120009714000897140008971400089714000803
:1001300097140008971400089714000897140008F3
:1001400097140008971400089714000897140008E3
:1001500097140008971400089714000897140008D3
:1001600097140008971400089714000897140008C3
:1001700097140008971400089714000897140008B3
:100180009714000897140008DFF810D00CF0E8FB73
:100190000CF062F900480047D903000850480020DD
:1001A00030BF72B6704762B6704780F308887047F8
:1001B000704700BFFEE700BFFEE700BFFEE700BFDD
:1001C000FEE77047704700000CB5002001900090DA
:1001D0007648006840F480307449086000BF734876
:1001E000006800F4003000900198401C01900098D5
:1001F00018B90198B0F5A04FF1D16C48006800F42F
:10020000003010B10120009001E000200090009823
:10021000012846D165484030006840F0805063496D
:10022000403108606248006840F44040604908601E
:100230005E48083000685D4908310860084600687B
:1002400040F4004008600846006840F4A050086090
:100250005848091F0860081F006840F08070091F97
:10026000086000BF5148006800F000700028F9D015
:1002700040F20570504908604C480830006820F092
:1002800003004A49083108600846006840F002004F
:10029000086000BF45480830006800F00C000828DE
:1002A000F8D10CBD10B54548006840F470004349D2
:1002B00008603E48006840F001003C4908600020AA
:1002C0003A4908310860394800683D4908403749D3
:1002D00008603C48091D0860081F006820F4802061
:1002E000091F0860002031490C310860FFF76CFFDE
:1002F0004FF0006031498039086010BD70B50020B2
:100300000022022300240221284D08352D6805F023
:100310000C0020B1042806D0082834D107E02A4D6B
:100320002A4E356033E02A4D284E35602FE01F4DB0
:100330002D1D2D68C5F380541C4D2D1D2D6805F015
:100340003F0154B1224DB5FBF1F5184E361D36680C
:10035000C6F3881605FB06F209E01B4DB5FBF1F567
:10036000124E361D3668C6F3881605FB06F20F4D91
:100370002D1D2D68C5F301456D1C6B00B2FBF3F517
:10038000124E356003E0104D104E356000BF00BFC7
:10039000064D08352D68C5F303150E4E705D0B4DE7
:1003A0002D68C540094E356070BD00000038024020
:1003B0000070004008544007003C024088ED00E017
:1003C000FFFFF6FE103000240024F400000000209F
:1003D00000127A000400002010B58AB00024A82082
:1003E00002F02EFB4FF4A06001F05AF800F04EFE30
:1003F000FFF7D7FE00F0F0FFFFF7D5FE09A804F0E5
:10040000A5FA00BF00BF00BF02F006FE044600BF11
:1004100000BF2C480078401C2A49087000BF00BF6C
:10042000204602F0FDFD00BF00BF00BF09A8032168
:1004300000220592CDE90621089010464FF4007184
:100440003322214BCDE90132CDE9031003200023F3
:100450001E4A1FA10090204808F0EAFF00BF00BF1D
:1004600000BF02F0D9FD044600BF00BF1548007868
:10047000401E1449087008460078A0B91748008843
:10048000002809DD00BF00BF204602F0C9FD00BF03
:1004900000BF05F06DF80DE000BF00BF204602F080
:1004A000BFFD00BF06E000BF00BF204602F0B8FD60
:1004B00000BF00BF00BF09A804F011FD00200AB072
:1004C00010BD0000B8000020280900209F09000886
:1004D0005354415254000000F00100207C000020E1
:1004E000B8B02422FE492EA80BF0A3FF2422FC4919
:1004F000243125A80BF09DFFF94B4833D3E90102C5
:100500001968DB68CDE92323CDE921102EA915A8B0
:100510000CF0BAFA25A909A80CF0B6FA02A800BF97
:10052000F0490160042181820122C282011D8161A2
:1005300021A91EC9001D1EC0143800BFEA49016070
:1005400000BFEA49016000BF44E015AA09AB0020E2
:1005500022E000211DE000EB4005141D04EB8504A2
:1005600004EB810494ED000A00EB40051C1D04EB34
:10057000850404EB8104D4ED000A30EE200A00EB80
:100580004005141D04EB850404EB810484ED000A8E
:10059000491C0329DFD3401C0328DAD300BF02A87B
:1005A0000DF00EF9D24890ED000ADFEDD20A30EEE0
:1005B000200A80ED000AD0480068C043CF49C1F846
:1005C000BC0237A800210B460122CDE900100846E5
:1005D0000AF0C9FEB9E72DED068B98B00024C04A99
:1005E0000C3AD2E900109268CDE9150214910EA8D8
:1005F000C34901600321018201224282011D416140
:1006000014A90EC9C0E90223416000BFBD490160C1
:1006100000BFC3E10EA80DF091F8BB4800F00FFD3C
:100620000D90B94907A800F073FCB74800F09CFC96
:1006300010EE106AB44800F0FCFC10EE107AB248DC
:1006400000F0FAFC0546B1480088B0F57A7F03D186
:100650000020AE49088004E0AC480088401CAB494B
:100660000880AA48008800F57A7082B20221A84862
:1006700000F08BFEA548008800F57A7082B2032155
:10068000A34800F082FEA148008800F57A7082B28B
:1006900004219F4800F079FE9C48008800F57A709C
:1006A00082B205219A4800F070FE9848008800F553
:1006B0007A7082B20621964800F067FE934800885F
:1006C00000F57A7082B20721914800F05EFE8F48F3
:1006D000008800F57A7082B208218D4800F055FE3E
:1006E0008A48008800F57A7082B20921884800F0B3
:1006F0004CFE00BF00BF00BF02F08EFC044600BFEE
:1007000000BF84480078401C8249087000BF00BFC9
:10071000204602F085FC00BF00BF00BF00BF7EA0E6
:1007200002F08CFA9DF8360000909DF837309DF964
:1007300035209DF934107AA00CF0D4FA7CA002F098
:100740007DFA00BF00BF74A002F078FA294679A0B4
:100750000CF0C8FA76A002F071FA00BF00BF6EA0DC
:1007600002F06CFA30460CF00FF841EC180B53EC29
:10077000182B74A00CF0B6FA6DA002F05FFA00BF5F
:10078000002107A80DF016F890ED000ABCEEC00A93
:1007900010EE100A80B2ADF81400012107A80DF088
:1007A00009F890ED000ABCEEC00A10EE100A80B203
:1007B000ADF81600022107A80CF0FCFF90ED000A2E
:1007C000BCEEC00A10EE100A80B2ADF8180000BFEF
:1007D00051A002F033FA022107A80CF0EBFF90EDD4
:1007E000000A10EE108A40460BF0CEFF41EC180BC9
:1007F000012107A80CF0DEFF90ED000A10EE108A30
:1008000040460BF0C1FF41EC190B002107A80CF08A
:10081000D1FF90ED000A10EE108A40460BF0B4FFB5
:1008200041EC1A0B8DED028B8DED009B53EC1A2BD6
:1008300048A00CF057FA3EA002F000FA00BF00BF3B
:1008400035A002F0FBF938460BF09EFF41EC180B87
:1008500053EC182B46A00CF045FA35A002F0EEF947
:1008600000BF00BF00BF00BF02F0D6FB044600BFC0
:1008700000BF28480078401E2649087008460078C6
:10088000A0B93E480088002809DD00BF00BF20460F
:1008900002F0C6FB00BF00BF04F06AFE0DE000BF1F
:1008A00000BF204602F0BCFB00BF06E000BF00BF57
:1008B000204602F0B5FB00BF00BF00BF00200E497C
:1008C000091F086017A80021C8230A46CDE90010B7
:1008D00008460AF048FD01200849C1F8B8024FE077
:1008E00048D9000820DE000850DE000800DE0008BD
:1008F000180000200AD7233CBC82404200804042BE
:1009000010DE000840DE000828210020140000202E
:100910001C000020B800002044454255473A090019
:100920006F70743A25642C25642C25782C25782E3C
:100930000D0A0000616C743A2564206D6D2E0D0A5D
:1009400000000000696D755F746D703A20252E34CB
:10095000660D0A00616363207261773A20252E32AA
:10096000662C252E32662C252E32660D0A000000DC
:1009700070726573733A2025660D0A007C000020B2
:1009800017A800214FF4FA730A46CDE90010084673
:100990000AF0E9FC07A80CF007F900BF3AE630B509
:1009A0008BB00446002500BF02F0FEF90AA808F04B
:1009B00068F90AAA0121084604F0F1F900BF00BF56
:1009C00000BF02F029FB054600BF00BF3748007892
:1009D000401C3649087000BF00BF284602F020FBCB
:1009E00000BF00BF00BF0AA8032100220592CDE985
:1009F000062108901046A42110222D4BCDE901328A
:100A0000CDE9031004200023AFF2354229A1009064
:100A1000294808F00DFD0AA8032100220592CDE91E
:100A2000062108901046C8211422244BCDE901323A
:100A3000CDE9031005200023AFF25B5220A1009006
:100A4000224808F0F5FC00BF00BF00BF02F0E4FA46
:100A5000054600BF00BF15480078401E13490870C6
:100A600008460078A0B91A480088002809DD00BFB0
:100A700000BF284602F0D4FA00BF00BF04F078FDA2
:100A80000DE000BF00BF284602F0CAFA00BF06E032
:100A900000BF00BF284602F0C3FA00BF00BF00BF7E
:100AA0000AA90C4808F018FE0BB030BDB8000020B1
:100AB000741300204C454400281100200416002027
:100AC00053454E534F525F50524F0000B01200201A
:100AD0007C000020EC11002010B52DED028B0446A7
:100AE0000A21FD4800F05EFC08EE100AB8EE480A44
:100AF000DFEDFA0A80EE201A84ED061ABDEC028BB7
:100B000010BD10B504460E21F34800F046FC2084C9
:100B100010BD1CB5044604236A460A21EE4800F0C5
:100B200019FCBDF80000C0F3C0116F200155BDF8DD
:100B30000200C1B26E200155BDF8040040B284F835
:100B40006C00BDF8060041B26D2001551CBD3EB5DC
:100B5000044603236A460721DF4800F009FC009899
:100B600000B2E081019801B22182029801B2618253
:100B70003EBD10B588B00446072301AA0021D6481F
:100B800000F0F6FB019800B26080029801B2A180EB
:100B9000039801B2E180049800B2A082059800B2E7
:100BA0002081069801B26181079801B2A18108B045
:100BB00010BD10B504460121C74800F0EEFB2070BF
:100BC000207800F0010010B12046FFF7D2FF207816
:100BD00000F0020010B12046FFF7B9FF207800F0C6
:100BE000040010B12046FFF794FF207800F01000B9
:100BF00010B12046FFF785FF207800F0080010B103
:100C00002046FFF769FF2078002801DD012010BD94
:100C10000020FCE72DE9F043CFB004460F4637A88B
:100C20000BF0A0FF002137A80CF0C4FDB4F90210AE
:100C300000EE101AB8EEC00A80ED000A012137A8B4
:100C40000CF0B8FDB4F9041000EE101AB8EEC00AAA
:100C500080ED000A022137A80CF0ACFDB4F90610B3
:100C600000EE101AB8EEC00A80ED000A9C4931A8C7
:100C70000BF03CFF9B4925A80BF01EFF9FED9A0A45
:100C800037A943A80CF03BFE9FED980A43A949A859
:100C90000CF035FE31AA49A91FA80CF011FE49A895
:100CA0000BF082FF43A80BF07FFF1FAA25A93DA8E8
:100CB0000BF0D2FF3DA904F124000BF077FF0546AD
:100CC0003DA80BF071FF19A80BF04CFF002119A8EB
:100CD0000CF070FDB4F9081000EE101AB8EEC00A5E
:100CE00080ED000A012119A80CF064FDB4F90A1086
:100CF00000EE101AB8EEC00A80ED000A022119A811
:100D00000CF058FDB4F90C1000EE101AB8EEC00A41
:100D100080ED000A764913A80BF0E8FE012F50D1B0
:100D2000734913A80CF002FD0DADB4F9140000EEE8
:100D3000900AF8EEE00AB0EE600A13A907A80CF0DA
:100D4000DEFD0DF11C086B4901A80BF0CFFE064635
:100D500028460BF007FF0546002012E008F10401C9
:100D600001EB800191ED000A311D01EB8001D1ED15
:100D7000000A30EE200A291D01EB800181ED000AF6
:100D8000401C0328EAD300BF0DA913A80BF00EFFE7
:100D900081460DA80BF008FF01A80BF005FF07A87E
:100DA0000BF002FF13AA19A901A80CF089FD01A9F3
:100DB00004F13C000BF0FAFE054601A80BF0F4FE2E
:100DC00012E04D4913A80CF0B1FC13AA19A90DA803
:100DD0000CF076FD0DA904F13C000BF0E7FE054692
:100DE0000DA80BF0E1FE00BF13A80BF0DDFE19A863
:100DF0000BF0DAFE1FA80BF0D7FE25A80BF074FE4F
:100E000031A80BF0D1FE37A80BF0CEFE4FB0BDE8F5
:100E1000F08370B505460C4628460BF0A3FE054648
:100E2000002128460CF0C6FCB4F9021000EE101A9E
:100E3000B8EEC00A80ED000A012128460CF0BAFC89
:100E4000B4F9041000EE101AB8EEC00A80ED000AE2
:100E5000022128460CF0AEFCB4F9061000EE101A80
:100E6000B8EEC00A80ED000A70BD70B505460C46AC
:100E700004F1240128460BF04FFE054670BD70B505
:100E800005460C4628460BF06DFE05460021284617
:100E90000CF090FCB4F9081000EE101AB8EEC00A7D
:100EA00080ED000A012128460CF084FCB4F90A10F8
:100EB00000EE101AB8EEC00A80ED000A02212846A2
:100EC0000CF078FCB4F90C1000EE101AB8EEC00A61
:100ED00080ED000A70BD00001C0000200000C84228
:100EE000A0D90008ACD900086DE71C41D5FF7F39B7
:100EF000DCD90008E8D90008D0D9000870B505464B
:100F00000C4604F13C0128460BF006FE054670BD78
:100F100070B505460C4628460BF024FE0546002118
:100F200028460CF047FCB4F90E1000EE101AB8EE8B
:100F3000C00A80ED000A012128460CF03BFCB4F900
:100F4000101000EE101AB8EEC00A80ED000A02215F
:100F500028460CF02FFCB4F9121000EE101AB8EE6F
:100F6000C00A80ED000A70BDB0F9141000EE101A2E
:100F7000F8EEC00A9FED3E1A80EE810ADFED3D0AD1
:100F800030EE200A704730B52DED028BA5B0044637
:100F900019A80BF0E7FD002119A80CF00BFC90ED4F
:100FA000008A002119A80CF005FC80ED008A0121BF
:100FB00019A80CF0FFFB90ED008A012119A80CF094
:100FC000F9FB80ED008A022119A80CF0F3FB90EDEB
:100FD000008A022119A80CF0EDFB80ED008A264959
:100FE00013A80BF083FD254907A80BF065FD19AA8E
:100FF00007A901A80BF030FE01A91FA80CF01CFCEA
:101000001FA904F124000BF0D1FD05461FA80BF029
:10101000CBFD01A80BF0C8FD07A80BF065FD13A8D8
:101020000BF0C2FD19A80BF0BFFD25B0BDEC028B83
:1010300030BD90ED060A70470146088C70470146A6
:10104000C86E704701466E20405C7047014691F9BA
:101050006C007047014691F96D00704710B5084863
:101060000BF0B0FD0446074A07490BF04BFE10BDDC
:101070000000AA4300000C42F4D9000800DA00087E
:1010800028210020000000082DCC000810B54FF4E6
:10109000E13001F06FFD00F09FF9034800F006F821
:1010A00000F0C4F910BD00001C00002010B598B07D
:1010B00004460121782000F087FD0121084600F058
:1010C000BBFD4CF2B370169002208DF85C0000203E
:1010D0008DF85E0003208DF85D0001208DF85F0023
:1010E00016A9B64800F0D2FA4FF683701690022087
:1010F0008DF85C0000208DF85E0003208DF85D0007
:1011000001208DF85F0016A9AD4800F0BFFA4FF23C
:101110003F00169002208DF85C0000208DF85E00E4
:1011200003208DF85D0001208DF85F0016A9A54809
:1011300000F0ACFA3F20169002208DF85C000020F1
:101140008DF85E0003208DF85D0001208DF85F00B2
:1011500016A99D4800F09AFA0C220021974800F049
:1011600020FB0C220121954800F01BFB0C220421DE
:10117000924800F016FB0C220521904800F011FB6C
:101180000C2207218D4800F00CFB0C2208218B4813
:1011900000F007FB0C220921884800F002FB0C221A
:1011A0000A21864800F0FDFA0C220E21834800F047
:1011B000F8FA0C220F21814800F0F3FA0C220021EA
:1011C0007F4800F0EEFA0C2201217D4800F0E9FA98
:1011D0000C2207217A4800F0E4FA0C220821784812
:1011E00000F0DFFA0C220921754800F0DAFA0C222F
:1011F0000A21734800F0D5FA0C220B21704800F048
:10120000D0FA0C2211466E4800F0CBFA0C220D21C8
:101210006B4800F0C6FA0C220E21694800F0C1FAB2
:101220000C220F21664800F0BCFA0C220021654810
:1012300000F0B7FA0C220121624800F0B2FA0C2249
:101240000221604800F0ADFA0C2203215D4800F055
:10125000A8FA0C2204215B4800F0A3FA0C22052115
:10126000584800F09EFA0C221146564800F099FAB0
:101270000C220D21534800F094FA0C220E21514803
:1012800000F08FFA0C220F214E4800F08AFA0C224F
:1012900000214D4800F085FA0C2201214A4800F057
:1012A00080FA0C220221484800F07BFA0C2203212C
:1012B000454800F076FA0C220421434800F071FA08
:1012C0000C220521404800F06CFA002000900190AB
:1012D000062002900020039004900590069007904D
:1012E0000890099010200A9000200B900D900C900F
:1012F0000E900F904FF4805010900020119012909B
:101300001390CDF850D0CDF854D007A801F03FF895
:101310000121002001F0C6F818B010BD30B508E07A
:101320001488456825F811404C1CE1B2921C5C1EE3
:10133000E3B2002BF4D130BD30B508E01468056885
:1013400045F821404C1CE1B2121D5C1EE3B2002B9B
:10135000F4D130BD10B508E0446834F8114022F8EB
:10136000024B4C1CE1B25C1EE3B2002BF4D110BD69
:1013700010B507E0046854F8214010C24C1CE1B2DB
:101380005C1EE3B2002BF5D110BD436823F8112099
:101390007047036843F8212070470246506830F8D0
:1013A000110070470246106850F821007047074846
:1013B0000749084A0160426000BF7047000C0240C4
:1013C0000010024000140240001802401C000020DF
:1013D000000000602C0100601CB50121022000F01B
:1013E000F3FB4FF47840009001208DF804000020BA
:1013F0008DF8060003208DF805006946044800F0CA
:1014000045F94FF47841024800F0BEF91CBD0000D8
:101410000004024010B503F02FFB1748FFF7C9FB8B
:10142000022001F0FCFA03F038FB10BD0EB50121DB
:10143000880300F023FC0121084600F02AFD022069
:10144000009000208DF804000C208DF8050001208C
:101450008DF80600684601F071FA07208DF8080043
:1014600002208DF809008DF80A0001208DF80B008C
:1014700002A800F01AF80EBD282100200648804777
:1014800006480047FEE7FEE7FEE7FEE7FEE7FEE769
:10149000FEE7FEE7FEE7FEE7A50200088901000877
:1014A00032490143324A1160704770B50021002370
:1014B0000F22C4781CB32E4C246804F4E064C4F5F5
:1014C000E064C4F30721C1F10404E3B20A414478A3
:1014D0009C40E1B28478144021430C07210E254C36
:1014E00005786155047804F01F050124AC400578A7
:1014F0006D11AD0005F1E025C5F8004109E0047863
:1015000004F01F050124AC401B4D0678761145F808
:10151000264070BD194A0A400243154B1B1F1A6032
:10152000704739B1124A121D12680243104B1B1D3D
:101530001A6006E00E4A121D126882430C4B1B1DF6
:101540001A607047042808D14FF0E021096941F082
:1015500004014FF0E022116107E04FF0E02109693A
:1015600021F004014FF0E022116170470000FA05FC
:101570000CED00E000E400E080E100E080FFFF1FF0
:1015800010B504469848844208D10121084600F06D
:1015900086FB0021012000F082FB76E09348844224
:1015A00008D10121022000F07AFB0021022000F086
:1015B00076FB6AE08E48844208D10121042000F0C5
:1015C0006EFB0021042000F06AFB5EE08948844243
:1015D00008D10121082000F062FB0021082000F062
:1015E0005EFB52E08448844208D10121102000F0C3
:1015F00056FB0021102000F052FB46E07F48844259
:1016000008D10121202000F04AFB0021202000F019
:1016100046FB3AE07A48844208D10121402000F09C
:101620003EFB0021402000F03AFB2EE0754884424A
:1016300008D10121802000F032FB0021802000F041
:101640002EFB22E07048844208D10121801500F071
:1016500026FB0021A01500F022FB16E06B48844217
:1016600008D10121401500F01AFB0021601500F09F
:1016700016FB0AE06648844207D10121001500F0FC
:101680000EFB0021201500F00AFB10BDF0B50A4644
:1016900000210023002400BF3DE0012505FA01F3ED
:1016A000156805EA03049C4234D105684F000326FF
:1016B000BE40B543056015794E00B5400668354318
:1016C00005601579012D02D01579022D16D1856896
:1016D0004F000326BE40B543856055794E00B540A6
:1016E000866835438560456801268E40B543456070
:1016F000456896798E40B6B235434560C5684F005F
:101700000326BE40B543C560D5794E00B540C668D6
:101710003543C560491C1029BFD3F0BD4FF6FF719A
:1017200001600021017141718171C171704708B57B
:101730004FF480320092009A0A430092009AC261EC
:10174000C161009AC261C2690092C269009208BD7B
:101750000246002013690B400BB1012000E000207D
:1017600070470146086980B27047024600205369FD
:101770000B400BB1012000E0002070470146486992
:1017800080B2704701837047418370470AB101837B
:1017900000E0418370474161704742694A404261BD
:1017A0007047F0B5002300244D07ED0E02FA05F353
:1017B000CE1000F1200555F826504E07F70E0F26E3
:1017C000BE40B543CF1000F1200646F82750CE109A
:1017D00000F1200555F8265045EA0304CE1000F12B
:1017E000200545F82640F0BD0000024000040240FC
:1017F00000080240000C02400010024000140240A9
:1018000000180240001C0240002002400024024058
:1018100000280240F948006840F00100F7490860DC
:101820000020F64908310860F4480068F44908408F
:10183000F2490860F348091D0860F348EF49843114
:101840000860F0481038091D0860EC48006820F472
:101850008020EA4908600020E8490C310860E74927
:101860008C31086070470021E44A921C11701146C7
:101870000870704710B501460022002300204A116D
:10188000012A02D1DD4C236808E0022A03D1DB4C97
:101890007034236802E0D94C7434236801F01F02CD
:1018A000012494401C400CB1012000E0002010BD38
:1018B00038B5002000900024002500BF3120FFF73C
:1018C000D9FF05460098401C00900098B0F5A04F45
:1018D00001D0002DF2D03120FFF7CCFF08B1012458
:1018E00000E00024204638BD01460020C34A1068AD
:1018F00020F0F80040EAC10010607047C34908605A
:1019000070470021BD4A703211701170012802D059
:1019100004280AD104E00121B84A7032117005E0B0
:101920000521B64A7032117000E000BF00BF704759
:10193000B7490860704770B5049C41EA82150126DA
:10194000C6EB530645EA0645054345EA0465AB4E3A
:10195000361D356070BDAD4908667047820142EAA8
:101960000172A64B84331A607047A8498866704795
:1019700010B5830143EA016343EA02739F4C883444
:10198000236010BDA14908677047A049C86470472B
:1019900002460020994B0833186820F0EC6042EAB8
:1019A00001031843954B0833186070470246002026
:1019B000924B0833186820F0784042EA010318433C
:1019C0008E4B083318607047014600208B4A08325E
:1019D000106820F003000843106070478748083003
:1019E000006800F00C00704701460020834A08326E
:1019F000106820F0F0000843106070470146002096
:101A00007E4A0832106820F4E050084310607047A6
:101A100001460020794A0832106820F4604040EA0C
:101A2000C10010607047F0B500210022002402259B
:101A300000260223714F08373F6807F00C0121B1DF
:101A4000042905D0082937D105E0724F076036E038
:101A5000714F076033E0694F3F1D3F68C7F3805601
:101A6000664F3F1D3F6807F03F036EB16A4FB7FBFB
:101A7000F3F7DFF888C10CF1040CDCF800C0CCF3FC
:101A8000881C07FB0CF40CE0624FB7FBF3F7DFF8A0
:101A90006CC10CF1040CDCF800C0CCF3881C07FB13
:101AA0000CF4564F3F1D3F68C7F301477F1C7D0074
:101AB000B4FBF5F7076002E0564F076000BF00BFB8
:101AC0004E4F08373F6807F0F0010909534F7A5C21
:101AD0000768D7404760494F08373F6807F4E0512F
:101AE000890A4E4F7A5C4768D7408760434F083772
:101AF0003F6807F46041490B484F7A5C4768D7401C
:101B0000C760F0BD002100F44072B2F5407F0AD1F9
:101B10003A4A0832116821F4F811414A024011434F
:101B2000364A08321160354A70321268C0F30B032E
:101B30001A43324B70331A60704735494439086094
:101B4000704733494039086070473649086070472C
:101B500001460020294A8C32106820F01F004A1EDE
:101B60001043264A8C321060704701460020234AF9
:101B70008C32106820F4F8504A1E40EA02201F4AB6
:101B80008C3210607047014600201C4A8C3210686D
:101B900020F4401008431060704701460020174AA7
:101BA0008C32106820F440000843106070470146F2
:101BB0000020124A8C32106820F440300843106034
:101BC000704719490860704739B10C4A30321268C1
:101BD00002430A4B30331A6006E0084A303212687A
:101BE0008243064B30331A607047F9B1034A3432EE
:101BF00012680243014B34331A601CE00038024083
:101C0000FFFFF6EA103000240030002000004742B9
:101C1000800E47420024F40000127A0024000020C5
:101C2000FFFCFF0F5C014742E01147428F4A1268F8
:101C300082438E4B1A60704739B18C4A121D12686C
:101C400002438A4B1B1D1A6006E0884A121D126867
:101C50008243864B1B1D1A60704739B1834A0C3290
:101C600012680243814B0C331A6006E07F4A0C3243
:101C7000126882437D4B0C331A60704739B17B4A3E
:101C8000103212680243794B10331A6006E0774A2B
:101C9000103212688243754B10331A60704739B1A5
:101CA000724A243A12680243704B243B1A6006E0E1
:101CB0006E4A243A126882436C4B243B1A60704788
:101CC00039B16A4A203A12680243684B203B1A60D5
:101CD00006E0664A203A12688243644B203B1A6051
:101CE000704739B1614A1C3A126802435F4B1C3B92
:101CF0001A6006E05D4A1C3A126882435B4B1C3B4B
:101D00001A60704739B1594A143A12680243574B66
:101D1000143B1A6006E0554A143A12688243534B4A
:101D2000143B1A60704739B1504A103A12680243A6
:101D30004E4B103B1A6006E04C4A103A1268824340
:101D40004A4B103B1A60704739B1484A1C3212683E
:101D50000243464B1C331A6006E0444A1C321268A8
:101D60008243424B1C331A60704739B13F4A2032DC
:101D7000126802433D4B20331A6006E03B4A203292
:101D800012688243394B20331A60704739B1374AA1
:101D9000243212680243354B24331A6006E0334A7A
:101DA000243212688243314B24331A60704739B1B0
:101DB0002E4A2C32126802432C4B2C331A6006E058
:101DC0002A4A2C3212688243284B2C331A607047FF
:101DD00039B1264A303212680243244B30331A603C
:101DE00006E0224A303212688243204B30331A60B8
:101DF0007047012808D11D493C31096841F00801AC
:101E00001A4A3C32116007E018493C31096821F058
:101E10000801164A3C321160704739B1134A273A1B
:101E200012780243114B273B1A7006E00F4A273AFB
:101E3000127882430D4B273B1A7070470B48403095
:101E4000006840F0807009494031086070470146E1
:101E50000020064A283A12680A400AB1012000E030
:101E60000020704701492639087070473438024015
:101E700010B501218803FFF756FF00214FF4804081
:101E8000FFF751FF10BD1C49086070471B490862ED
:101E9000704730B500228B071C0F0F2303FA04F2A2
:101EA000154B08338C1053F824309343124C0834EC
:101EB0008D1044F8253023468C1053F824308C07BD
:101EC000240F00FA04F423430B4C08348D1044F81B
:101ED000253030BD0949DC31086070470849086089
:101EE0007047002004492031096801F4807109B16C
:101EF000012000E000207047003801400000274228
:101F00000004274210B50446FA48844208D1012152
:101F10001020FFF708FF00211020FFF704FF57E013
:101F2000F548844209D101214804FFF7EBFE002166
:101F30004FF40030FFF7E6FE4AE0F048844209D152
:101F400001218804FFF7DEFE00214FF48020FFF717
:101F5000D9FE3DE0EA48844209D10121C804FFF7D7
:101F6000D1FE00214FF40020FFF7CCFE30E0E54821
:101F7000844209D101210805FFF7C4FE00214FF476
:101F80008010FFF7BFFE23E0DF48844208D1012123
:101F90002020FFF7C8FE00212020FFF7C4FE17E035
:101FA000DA48844209D101218807FFF7ABFE0021FE
:101FB0004FF08040FFF7A6FE0AE0D548844207D1E3
:101FC00001214005FFF79EFE00216005FFF79AFE04
:101FD00010BD2DE9FF4705460E460024A14600BF6F
:101FE000A046B08900B100BF2C8A24F44054F08888
:101FF00004432C82AC8941F20C608443B08831895F
:102000000843718908430443AC81AC8A24F44074CA
:10201000B0890443AC826846FFF705FDB5488542A8
:1020200002D0B948854202D1DDF80C9001E0DDF81C
:102030000890A88900F4004040B109EBC90000EB0A
:10204000091031684900B0FBF1F707E009EBC9005E
:1020500000EB091031688900B0FBF1F76420B7FB91
:10206000F0F004012009642101FB1078A88900F434
:10207000004040B1322000EBC800B0FBF1F000F0AE
:102080000700044308E0322000EB08106421B0FB95
:10209000F1F000F00F0004432C81BDE8FF874FF4FE
:1020A0001651016000218180C18001810C21418194
:1020B00000218181704710B502460020108A20F46B
:1020C00070600B884C8823438C882343CC8823433F
:1020D0001843108210BD0021018041808180C180A1
:1020E000704721B1828942F40052828104E08289E2
:1020F0004DF6FF731A4082817047028B02F47F42D3
:102100000283028B0A430283704721B1828942F421
:102110000042828103E08289C2F30E02828170470D
:1021200021B1828A42F40062828204E0828A4FF204
:10213000FF731A4082827047C1F3080282807047A1
:1021400001468888C0F308007047028A4FF6F07392
:102150001A400282028A0A430282704721B18289B0
:1021600042F00202828104E082894FF6FD731A4038
:102170008281704782894FF2FF731A40828182897F
:102180000A4382817047028A4FF6DF731A40028247
:10219000028A0A430282704721B1028A42F48042D5
:1021A000028204E0028A4BF6FF731A4002827047F3
:1021B000818941F001018181704721B1828A42F019
:1021C0000802828204E0828A4FF6F7731A40828204
:1021D0007047028BD2B20283028B42EA0122028351
:1021E000704721B1828A42F02002828204E0828A12
:1021F0004FF6DF731A408282704721B1828A42F023
:102200001002828204E0828A4FF6EF731A408282C3
:102210007047828A4FF6FB731A408282828A0A4391
:102220008282704721B1828A42F00202828204E0F7
:10223000828A4FF6FD731A40828270471AB1838AF0
:102240000B43838202E0838A8B4383827047F0B51D
:102250000346002400260025002040F66A17B942F4
:1022600000D100BF1846C1F3421401F01F06012738
:1022700007FA06F5012C01D10C3004E0022C01D143
:10228000103000E014301AB107682F43076002E0F5
:102290000768AF430760F0BD02460020B1F5007F3C
:1022A00000D100BF13880B400BB1012000E00020DB
:1022B000704701F40072B2F5007F00D100BFCA433D
:1022C0000280704770B502460024002300250020DC
:1022D00040F66A16B14200D100BFC1F3421501F0C9
:1022E0001F03012606FA03F3012D13D1968933400B
:1022F00017E000000010014000440040004800408A
:10230000004C0040005000400014014000780040A4
:10231000007C0040022D02D1168A334001E0968AEB
:1023200033400C12012606FA04F41688344013B127
:102330000CB1012000E0002070BD10B50022002388
:1023400040F66A14A14200D100BF0A120124944051
:10235000A3B2DC43048010BD30B943F2DB0281003C
:10236000A1F1C0410A6005E043F2D2028100A1F16F
:10237000C0410A606FF07042411C8900A1F1C04168
:102380000A608100A1F1C041C1F804217047D0E981
:1023900001121143C268114302691143426911439A
:1023A00082691143C2691143026A1143426A1143AF
:1023B000826A1143C26A1143026B114302689200A0
:1023C000A2F1C0421160816808290BD1016889001F
:1023D000A1F1C041096841F0400201688900A1F102
:1023E000C0410A60416B0968426B526841EA0211C0
:1023F000426B926841EA0221426B928941EA0241B2
:10240000426B128A41EA0251426B127D41EA02613B
:10241000426B926911430268521C9200A2F1C042C1
:102420001160C16AB1F5804F1BD1816B0968826B65
:10243000526841EA0211826B926841EA0221826B82
:10244000128A41EA0251826B127D41EA0261826B7B
:102450009269114302689200A2F1C042C2F80411CD
:1024600007E06FF0704201688900A1F1C041C1F836
:102470000421704700210160022141600021816038
:10248000C160016141618161C16101624FF48051AC
:102490004162490081620021C1620163F8494163E0
:1024A0008163704751B18200A2F1C042126842F0CC
:1024B00001038200A2F1C042136009E08200A2F190
:1024C000C0421268EF4B1A408300A3F1C0431A6068
:1024D000704710280AD118214FF020421166402180
:1024E00051664FF0FC319166D16610E01821E64A42
:1024F000116040214FF02042C2F884104FF0FC31AF
:10250000E14A083211604FF02042C2F88C10704747
:1025100030B5002100220023446844F00804856897
:102520002C43C5682C4305692C43456944EA45247E
:10253000856944EA4531C4692468C5696D6844EA1F
:102540000524C5692D8944EA0544C5692D7B44EA03
:102550000562046A2468056A6D6844EA0524056A10
:102560002D8944EA0544056A2D7B44EA0563046825
:10257000102C05D14FF020442166A266E36608E0E6
:10258000C14C21604FF02044C4F88820BE4C0C346C
:10259000236030BD10210160002141608160C16075
:1025A000016141618161FC21C2691160C2695160B0
:1025B000C2699160C269D160026A1160026A5160A9
:1025C000026A9160026AD160704799B1102808D1FF
:1025D0004FF02042126E42F004024FF020431A6680
:1025E0001DE0A94A126842F004024FF02043C3F8EC
:1025F000802014E0102809D14FF02042126EA14B28
:10260000DB1E1A404FF020431A6608E09E4A12680B
:102610009C4BDB1E1A404FF02043C3F880207047CC
:1026200099B1102808D14FF02042126E42F04002BA
:102630004FF020431A661DE0934A126842F04002B0
:102640004FF02043C3F8802014E0102809D14FF048
:102650002042126E8B4B3F3B1A404FF020431A66CC
:1026600008E0894A1268874B3F3B1A404FF02043ED
:10267000C3F88020704701460020102903D14FF095
:102680002042506F02E0804A1432106870471820D0
:102690007D492031086000200906C1F8A4004FF0F0
:1026A000FC30794928310860091D0860091D08605F
:1026B0007047016841F01001426841EA4221826896
:1026C00041EA4231704A20321160C1680968C2682B
:1026D000526841EA0221C268128941EA0241C26895
:1026E000127B41EA0261684A283211600169096877
:1026F0000269526841EA02210269128941EA0241F3
:102700000269127B41EA02615F4A2C321160416921
:1027100009684269526841EA02214269128941EA24
:1027200002414269127B41EA02614FF02042C2F845
:10273000B01070470021016041608160FC21C268D7
:102740001160C2685160C2689160C268D16002695C
:10275000116002695160026991600269D160426949
:10276000116042695160426991604269D16070476D
:1027700048B145492031096841F004014FF0204239
:10278000C2F8A01009E04049203109683D4AD21E34
:1027900011404FF02042C2F8A010704710B5F2B1BE
:1027A000102807D14FF020435B6E0B434FF02044BD
:1027B000636632E0B0F5807F08D1334B1B1D1B6888
:1027C0000B434FF02044C4F8843026E02E4B2433D2
:1027D0001B680B434FF02044C4F8A4301DE01028C0
:1027E00007D14FF020435B6E8B434FF0204463666C
:1027F00013E0B0F5807F08D1234B1B1D1B688B4372
:102800004FF02044C4F8843007E01F4B24331B688A
:102810008B434FF02044C4F8A43010BD10B50246DD
:1028200000200023102A03D14FF02044636E09E0FA
:10283000B2F5807F03D1144C241D236802E0124CB2
:102840002434236803EA01040CB1012000E00020D5
:1028500010BD102807D14FF02042526E8A434FF02E
:1028600020435A6619E0B0F5807F0FD1064A121D49
:1028700012688A434FF02043C3F884200DE0000023
:1028800024DA0008FEFF0F00800000A0234A12682F
:102890008A434FF02043C3F8A420704770B5024626
:1028A0000020002300240025102A03D14FF02046E9
:1028B000736E08E0B2F5807F03D1184E203E336876
:1028C00001E0164E336803EA010403EAD10514B1AE
:1028D0000DB1012000E0002070BD102808D14FF09C
:1028E0002042526E22EAD1024FF020435A6614E091
:1028F000B0F5807F09D1094A203A126822EAD10254
:102900004FF02043C3F8842007E0044A126822EA0B
:10291000D1024FF02043C3F8A4207047A40000A0C8
:10292000002041490860091D0860091D0860091D53
:1029300008603E483C4914310860704700213A491C
:102940008279002A3AD00A46126803689A430B46F5
:102950001A600A1D126803689A430B1D1A600279F7
:1029600011440A6803681A430A602F4A0832126841
:1029700003689A432C4B08331A601A1D12680368C7
:102980009A43294B0C331A604279102A0ED11A1F30
:10299000126803681A43244B08331A601A1D126820
:1029A00003681A43204B0C331A600DE01E4942792C
:1029B00011440A6803681A430A6005E00279114469
:1029C0000A6803689A430A60704700210160017138
:1029D0000C21417100218171704713491031096840
:1029E0000143114A103211607047014600200E4A1F
:1029F000143212680A400AB1012000E0002070473A
:102A0000094914310860704701460020064A143213
:102A100012680A400AB1012000E000207047024914
:102A20001431086070470000003C0140FFFF7F0048
:102A300010B502F021F808F09DFE02F02EF810BD4E
:102A400070B504466FF00400FEF77CFD2046E117E8
:102A500004EB5171C1F3C701394A1170E11704EB5E
:102A60005171CD10374800683749B1FBF0F045434C
:102A7000344800684FF47A71B1FBF0F033490880B4
:102A80004FF0E020006940F002004FF0E0210861C3
:102A900008464561006940F00100086170BD2DE9FC
:102AA000F843074600264FF0E020D0F81490244861
:102AB000007807FB00F800BF684602F097F84FF077
:102AC000E020856911E04FF0E0208469AC420CD031
:102AD000AC4202D2281B064403E0A9EB04002844C0
:102AE00006442546464500D300E0ECE700BF6846B3
:102AF00002F0C6F8BDE8F88338B5044614480078FB
:102B0000012816D11348007898B9104800888442EB
:102B100008DB0E48008894FBF0F56A460821284639
:102B200008F09CFB0948008894FBF0F100FB114081
:102B300084B24FF47A7104FB01F0FFF7B0FF38BDA7
:102B40003400002038DC000840420F00360000202E
:102B50007100002070000020014600BF704700BFD8
:102B60005C4A128802F04002002AF9D0C2B2594BE6
:102B70009A80704710B588B0044601210846FFF7D7
:102B800023F801211020FFF779F807220921524884
:102B9000FEF707FE07220A214F48FEF702FE4FF418
:102BA000C060069002208DF81C008DF81D000020EA
:102BB0008DF81E0001208DF81F0006A94648FEF77B
:102BC00065FD02940020ADF80C00ADF80E00ADF8E4
:102BD0001000ADF814000C20ADF8120002A93D4819
:102BE000FFF7F7F901213B48FFF77BFA402139480D
:102BF000FFF75FFB012240F225513648FFF727FB24
:102C000025208DF8040003208DF805008DF80600BE
:102C100001208DF8070001A8FEF747FC08B010BDA1
:102C200010B5044621462B48FFF786FA00BF402125
:102C30002848FFF731FB0128F9D110BD10B5044633
:102C400003E02078FFF7ECFF641C20780028F8D11F
:102C500010BD10B501F010FF40F225511D48FFF7DF
:102C600031FB10B31B48FFF76BFAC4B21B48008856
:102C700000F40040C8B91948008800F4804060B1F1
:102C80000A2C03D000201549088020E01348008852
:102C900040F400401149088019E00D2C06D10F487E
:102CA000008840F480400D49088010E00B480088FF
:102CB000C0F30D000A490C5408480088401C07491D
:102CC000088008460088C72801DD0020088001F040
:102CD000E4FE10BD00100140000002403C00002056
:102CE000C02100201FB56846FEF79DFE019804B084
:102CF00010BD10B5FFF7F6FF04461848006840F015
:102D00008070164908600020154948600846006830
:102D100040F001000860204600F0B7F810BD1049EF
:102D2000486870472DE9F0478246FFF7DBFF4FF018
:102D3000000980460B4A00234046494609F048FBFB
:102D4000064632460B465046002109F041FB044638
:102D50000D4620462946BDE8F0870000FCED00E066
:102D6000001000E040420F0010B5002400BF00BF7B
:102D700000F052F9044600BF00BF1021A14800F046
:102D8000D2FA00BF00BF204600F04AF900BF00BFE2
:102D900010BD10B5FFF7E8FF10BD10B500209A492F
:102DA0000860FFF7A6FF10BD10B5FFF7F6FFFFF7AD
:102DB000F0FF10BD00BFFEE770B505460C460026CB
:102DC00014B900BFFFF7F6FF15B90A20208070BDC7
:102DD00000BF00BF00F020F9064600BF00BF102270
:102DE0008849284600F056FF00BF00BF304600F07B
:102DF00017F900BF00BF0020208000BFE7E72DE9E2
:102E0000F04105460C46002714B900BFFFF7D2FF7A
:102E10001DB90A202080BDE8F0811021284600F06D
:102E200021FF0646102E15D200BF00BF00F0F4F8B7
:102E3000074600BF00BF10222946724800F02AFF53
:102E400000BF00BF384600F0EBF800BF00BF002015
:102E5000208002E04FF47A70208000BFDBE710B5DD
:102E6000FFF75DFF0446204610BD704700B50146E0
:102E700011B900BFFFF79EFF634A106808B1002236
:102E800001E04FF4FA620A8000BD5F4908607047B4
:102E900070B50546284600F0CAF80446183C20469E
:102EA00070BD70B50546284600F0C1F80446103CD8
:102EB000204670BD70B50546284600F0B8F80446B7
:102EC00000BF204670BD30B502460B460024D2F14B
:102ED000FF359C4126D24FF6FF74D2F1FF359C415D
:102EE0000FD26FF07F44D2F1FF359C4103D2190E0F
:102EF000464C605C44E0190C444C645C04F10800EE
:102F00003EE0FF24D2F1FF359C4105D2190A3F4C27
:102F1000645C04F1100033E019463C4C645C04F13D
:102F200018002DE04FF6FF750024AD1A9C4115D214
:102F30006FF07F450024AD1A9C4107D2140E44EA7D
:102F40000321324C645C04F1200019E0140C44EAC3
:102F500003412E4C645C04F1280011E00024D2F1FE
:102F6000FF059C4107D2140A44EA0361274C645CC4
:102F700004F1300004E01146244C645C04F1380094
:102F800030BD70B504460CB9082070BD204600F075
:102F900051F805462846F8E770B504460CB91020EC
:102FA00070BD204600F046F805462846F8E770B5A3
:102FB00004460CB9202070BD204600F03BF80546C1
:102FC0002846F8E72DE9F04304460D46002184EA3F
:102FD00001006940084302D14020BDE8F083E2438C
:102FE000E843521C40F1000102EA040601EA050729
:102FF00030463946FFF767FF8046C8F13F0948462B
:10300000EBE70000882200204000002040DA0008A2
:1030100072B6704762B67047EFF3108072B67047B1
:1030200080F31088704730BF704720BF7047B0FAF8
:1030300080F0704790FAA0F0B0FA80F0704790FAF4
:10304000A0F070470146412903DB5A2901DC012227
:1030500000E00022012A08D0612903DB7A2901DC83
:10306000012200E00022012A01D1012200E0002219
:10307000104670470146412903DB5A2901DC012231
:1030800000E00022012A08D0612903DB7A2901DC53
:10309000012200E00022012A01D1012200E00022E9
:1030A000012A08D0302903DB392901DC012200E0A4
:1030B0000022012A01D1012200E0002210467047BF
:1030C0000146612903DB7A2901DC012200E00022AC
:1030D000104670470146412903DB5A2901DC0122D1
:1030E00000E00022104670470146302903DB3929F1
:1030F00001DC012200E00022104670470146302921
:1031000003DB372901DC012200E000221046704772
:103110000146302901DB392907DD412901DB462938
:1031200003DD612903DB662901DC012200E00022C6
:10313000104670470146202901D0092901D10122FA
:1031400000E00022104670470146202909D00D29D1
:1031500007D00A2905D00C2903D0092901D00B2951
:1031600001D1012200E000221046704701462029CB
:1031700003DB7E2901DC012200E0002210467047BB
:103180000146212903DB7E2901DC012200E0002227
:10319000104670470146202903DB7E2901DC01220D
:1031A00000E00022012A35D1202909D00D2907D0BD
:1031B0000A2905D00C2903D0092901D00B2901D1F6
:1031C000012200E000222ABB412903DB5A2901DC4D
:1031D000012200E00022012A08D0612903DB7A29BC
:1031E00001DC012200E00022012A01D1012200E0DD
:1031F0000022012A08D0302903DB392901DC012211
:1032000000E00022012A01D1012200E000220AB9D7
:10321000012200E000221046704701464AB2002A0F
:1032200001DB1F2901DD7F2901D1012200E00022FD
:10323000104670470146412903DB5A2901DC01226F
:1032400000E00022012A02D101F1200200E00A463A
:10325000D0B270470146612903DB7A2901DC0122E3
:1032600000E00022012A02D1A1F1200200E00A467A
:10327000D0B27047F0B504460B462046FFF7EAFF90
:1032800005461846FFF7E6FF0646B54201D1012084
:1032900000E0002007463846F0BD0000FC48FD492C
:1032A00001600146416000218160C16001614161AE
:1032B0008161C16101620163C1624162F64981635A
:1032C000C1634FF48061016441640146F34A1160B7
:1032D00070472DE9F04105460B469446002700242F
:1032E00002E03F021F43641C042CFAD3604605F041
:1032F0000306294646B1344603E001F8013B401E6F
:10330000641C08B1042CF8D30A4601E080C2001FF7
:103310000428FBD2114602E001F8013B401E0028C0
:10332000FAD1BDE8F08130B505460C4622460021B1
:103330002846FFF7CEFF30BD2DE9F04F85B0074698
:103340008846914646463D46AE4207D94A464146E2
:10335000384601F01DF905B0BDE8F08F4C4607EB8B
:103360000900451E08EB0900461EA81B049004989E
:10337000042834D305F00300029006F00301019104
:10338000DDE90110884201D1012000E00020009019
:103390000098012823D10298032810D0029840B247
:1033A000039008E016F8010905F80109641E039866
:1033B000401E40B2039014B103980028F2DAA5F140
:1033C000030AA6F1030B04E05BF804094AF80409B8
:1033D000241F042CF8D20AF103050BF1030604E0C4
:1033E00016F8010905F80109641E002CF8D100BF88
:1033F000B1E72DE9F84F80468946154615B90120F9
:10340000BDE8F88FB8F1000F01D10020F8E7B9F15D
:10341000000F01D10020F3E70124294608EB050243
:1034200009EB050302F0030C03F0030BDC4501D1AB
:10343000012000E0002000900098012829D1BCF173
:10344000000F12D0E2460AE0521E5B1E107893F87D
:1034500000E0704500D00024491EAAF1010A012CA9
:1034600003D111B1BAF1000FEED1012C11D11646E2
:103470001F4608E0361F3F1F3068D7F800E0704550
:1034800000D00024091F012C01D10429F2D23246B8
:103490003B4608E0521E5B1E107893F800E0704532
:1034A00000D00024491E012C01D10029F2D1204670
:1034B000A6E7F0B503460E461546D96BB1FBF5F00D
:1034C00005FB101CBCF1000F02D0A5EB0C0200E0C4
:1034D00000229419586CA04201D20020F0BD0F19AF
:1034E0001144DF63586C001B58640846F6E72DE969
:1034F000F04106460F46B6FBF3FC03FB1C6109B125
:103500005C1A00E00024B2FBF3FC03FB1C2109B1B0
:103510005D1A00E0002502EB0508A7F1010C08FB8D
:103520000C4C0CEB0200BDE8F0812DE9FE4F80460B
:10353000894614461E46002000900CB901AC00BF1D
:1035400000202060524F00BF00BFFFF765FD0090D4
:1035500000BF00BFF86B0290D7F844B04B4642461C
:1035600001210298FFF7C3FF05465D450FD900BF53
:1035700000BF0098FFF754FD00BF00BFA5EB0B0094
:10358000206042F2E27030800020BDE8FE8F4A46A3
:1035900041463846FFF78DFF8246BAF1000F0CD145
:1035A00000BF00BF0098FFF73BFD00BF00BF2560D4
:1035B00042F2E27030800020E7E700BF00BF0098D1
:1035C000FFF72EFD00BF00BF42F210703080504662
:1035D000DBE72DE9FC5F07460C4690460020009093
:1035E00000BF00BFFFF718FD009000BF00BFD7F875
:1035F0000490D9F8380008B1484600E024488246D3
:10360000DAF84450DAF83CB000BF00BF0098FFF78A
:1036100007FD00BF00BF012C0AD9BBFBF4F004FB7F
:1036200010B60EB1A01B00E00020019001982D1AE9
:1036300042F21070A8F800002846BDE8FC9F70B563
:1036400004460D462A4621461148FFF7C2FF0646AA
:10365000304670BD18B942F211720A807047104AA4
:103660000260002242608260C26002614261826147
:10367000C2610262826242630263C2624262826328
:10368000C2630264426442F210720A8000BFE5E73E
:103690009822002048454150E022002044000020AC
:1036A0004E4F4E452DE9FF4F91B00446DDE920898C
:1036B00000200090B8F1000F02D10DF1180800BFF2
:1036C0000020C8F8000049462046FFF7C3FFB9F8BC
:1036D000000042F21071884202D015B0BDE8F08FB0
:1036E000FE48006820B942F2E770A9F80000F4E74C
:1036F000DFF8ECA30020059000BF00BFFFF78CFCB3
:10370000009000BF00BF129880BB5546AB462E46C6
:10371000DAF83C000D9004231A4614990D98FFF72F
:10372000E6FE049004990D9808440C90DDE91E23F0
:1037300014990C98FFF7DBFE0390DDE903010844C0
:103740000590DAF844700598B8427DD900BF00BFF3
:103750000098FFF765FC00BF00BF0598C01BC8F8C4
:10376000000042F2E270A9F80000B6E7FFE7129805
:103770000B90DDE912010844401E0A900025AB467B
:10378000D64806683BE0B16B1298814205D1316C96
:103790001398814201D1354633E0B06B0990316C0A
:1037A000B06B0844401E0890DDE90901814200D257
:1037B00027E009990B98884203D8DDE9091088426F
:1037C0000FD209990B98884203D308990A98884226
:1037D00007D908990B9888420FD808990A98884207
:1037E0000BD300BF00BF0098FFF71AFC00BF00BF5B
:1037F00042F27F70A9F800006FE7B346F668002E2A
:10380000C1D100BF45B925461298A0631298E06364
:103810001398206413986064DAF83C000D90042338
:103820001A4614990D98FFF762FE0490DAF8447076
:103830000498B84211D900BF00BF0098FFF7F0FB11
:1038400000BF00BF049800E024E0C01BC8F80000DF
:1038500042F2E270A9F800003FE7E86B0C90DDE966
:103860001E2314990C98FFF742FE03906F6C039887
:10387000B8420FD900BF00BF0098FFF7D1FB00BFCF
:1038800000BF0398C01BC8F8000042F2D870A9F826
:10389000000022E71498800002900422504602990A
:1038A000FFF707FE0F900F9830BBDAF8447000BFA7
:1038B00000BF0098FFF7B4FB00BF00BF129858B9D3
:1038C0000598B84204D90598C01BC8F800000EE05E
:1038D0000598C8F800000AE00298B84204D9029896
:1038E000C01BC8F8000002E00298C8F8000042F2CD
:1038F000E270A9F80000F0E60020019034E02846CC
:10390000DDE91E12FFF7D5FD0E900E9820BBE86B87
:103910000C906F6C00BF00BF0098FFF781FB00BFE9
:1039200000BF01991498401A0790DDE91E230799FA
:103930000C98FFF7DCFD05900598B84204D905986E
:10394000C01BC8F8000002E00598C8F8000042F269
:10395000D870A9F80000C0E6019ADDE90E0141F82F
:1039600022000198401C0190149901988842C6D306
:10397000A5420DD1C4F808B0E660BBF1000F02D03B
:10398000CBF80C4001E0554804605EB1B46009E03A
:10399000686910902561109860616C61109808B199
:1039A000109804614F48206065600C98A0610399ED
:1039B0000C980844401EE0610F9820620398A062B2
:1039C0001F9860631E9820631498E06214986062E8
:1039D00000BF00BF0098FFF723FB00BF00BF42F20B
:1039E0001070A9F8000000BF77E62DE9F041044609
:1039F0000D46002700BF00BFFFF70EFB074600BFC4
:103A000000BF666A00BF00BF3846FFF709FB00BF72
:103A100000BF42F2107028803046BDE8F0812DE9E9
:103A2000F041044688461546002700BF00BFFFF757
:103A3000F3FA074600BF00BF606A60B900BF00BF6D
:103A40003846FFF7EDFA00BF00BF42F2DE70288073
:103A50000020BDE8F081E16A606A88420BD900BFAE
:103A600000BF3846FFF7DCFA00BF00BF42F2957096
:103A700028800020EDE7606A401E6062D4E90801FA
:103A800050F8216000BF00BF3846FFF7C9FA00BFF9
:103A900000BF42F2107028803046DAE72DE9F04787
:103AA00004460F4615464FF0000900BF00BFFFF760
:103AB000B3FA814600BF00BFE06AC01B461EE06A41
:103AC000B04213D800BF00BF4846FFF7A9FA00BFB5
:103AD00000BF42F295702880002005E044000020DD
:103AE00098220020504F4F4CBDE8F087606AB042EA
:103AF0000BD900BF00BF4846FFF792FA00BF00BFD6
:103B000042F2957028800020E7E7206A50F826806E
:103B100000BF00BF4846FFF783FA00BF00BF42F274
:103B2000107028804046D8E72DE9F04704460E463D
:103B300017464FF0000A00BF00BFFFF76DFA82463C
:103B400000BF00BFE16A606A88420BD300BF00BFBC
:103B50005046FFF765FA00BF00BF42F2DD703880C3
:103B6000BDE8F0874FF00008656A08E0206A50F869
:103B70002590B14502D14FF0010803E06D1CE06AC9
:103B8000A842F3D800BFB8F1010F06D1D4E908016B
:103B900050F82100216A41F82500D4E9080140F8D5
:103BA0002160606A401C606200BF00BF5046FFF7A2
:103BB00037FA00BF00BF42F21070388000BFCFE775
:103BC0002DE9F84F04460F461646002000904FF0AE
:103BD000FF3B00BF00BFFFF71FFA009000BF00BF10
:103BE000E16A606A88420CD300BF00BF0098FFF70B
:103BF00017FA00BF00BF42F2DD7030805846BDE8C2
:103C0000F88F4FF00009656A08E0206A50F82580B7
:103C1000B84502D14FF0010903E06D1CE06AA842EB
:103C2000F3D800BFB9F1010F0FD1E06A401EA0EB3D
:103C3000050A00BF00BF0098FFF7F2F900BF00BF00
:103C400042F2107030805046D9E700BF00BF0098A4
:103C5000FFF7E6F900BF00BF42F288703080584697
:103C6000CDE7000010B502460B461146002001E0EA
:103C7000491C401C19B10C780CB19842F8D310BD06
:103C800030B504464FF0FF312046FFF7EBFF054605
:103C9000284630BD70B504460D4616460CB90020C6
:103CA00070BD0DB90020FBE721462A46002304E041
:103CB00010780870491C521C5B1C21B11AB1107895
:103CC00008B1B342F4D301B10AB90020E8E7B34226
:103CD00001D2002008702046E2E770B504460D4688
:103CE0004FF0FF3229462046FFF7D4FF0646304604
:103CF00070BD70B503460C4615460BB9002070BD6B
:103D00000CB90020FBE70DB91846F8E7194600E0AA
:103D1000491C11B108780028FAD109B90020EEE752
:103D20002246002604E010780870491C521C761CBC
:103D300021B11AB1107808B1AE42F4D301B10AB979
:103D40000020DCE7002008701846D8E770B504466C
:103D50000D464FF0FF3229462046FFF7CAFF0646C0
:103D6000304670BD2DE9F04305460B469446BCF144
:103D7000000F02D10020BDE8F08335B90BB9002057
:103D8000F9E7187842421046F5E713B92A78104649
:103D9000F1E729461C460F4626467F1C761C4FF04D
:103DA000000805E0491C641C7F1C761C08F1010812
:103DB000087894F80090484505D1087818B117B1F3
:103DC0000EB1E045EED3E04501D10020D3E70878FD
:103DD00094F80090484505D0087894F80090A0EB3E
:103DE00009020BE0087808B9002207E02FB90EB9E4
:103DF000002203E03078424200E03A781046BAE709
:103E000070B504460D464FF0FF3229462046FFF7B5
:103E1000A9FF0646304670BD2DE9F74F82B08046B7
:103E20000E46049818B9002005B0BDE8F08FB8F12F
:103E3000000F09D10EB90020F6E73078FFF7FAF944
:103E400007467C422046EFE73EB998F80000FFF7AE
:103E5000F1F905462C462046E6E7C146B246C8467B
:103E6000C3465646CDF804A0D8460BF1010B019E7F
:103E7000701C0190C84699F80000FFF7DBF9054671
:103E800056469AF80000FFF7D5F907460020009043
:103E900015E009F101090AF1010A0BF1010B019882
:103EA000401C01900098401C009099F80000FFF71A
:103EB000C1F905469AF80000FFF7BCF90746BD4274
:103EC0000BD199F8000040B1BBF1000F05D001986B
:103ED00018B1049900988842DBD30499009888426D
:103EE00001D10020A0E7BD4201D0EC1B16E00DB9C6
:103EF000002413E0BBF1000F0AD1019808B9002497
:103F00000CE001990878FFF795F907467C4205E037
:103F10009BF80000FFF78EF905462C46204683E704
:103F200070B504460D464FF0FF3229462046FFF794
:103F300073FF0646304670BD30B504460B46154645
:103F40000CB9002030BD0BB90020FBE72146002250
:103F500001E0491C521C31B1087820B10878A84210
:103F600001D09A42F5D309B90020EBE79A4201D378
:103F70000020E7E70878A84201D00020E2E70846E1
:103F8000E0E770B505460C4622464FF0FF31284663
:103F9000FFF7D2FF0646304670BD2DE9F0430546D7
:103FA0000E46174615B90020BDE8F0830EB9002073
:103FB000FAE72C46A6F1010949462046FFF752FED2
:103FC000804644440CB90020EEE700E0641EAC4299
:103FD00002D02078B842F9D12078B84201D0002030
:103FE000E2E72046E0E770B505460C4622464FF072
:103FF000FF312846FFF7D1FF0646304670BD70B549
:1040000004460D4616460CB9002070BD0BB90020C1
:10401000FBE721461A4605E00878A84200D10E7059
:10402000491C521E19B1087808B1002AF4D1204663
:10403000EBE7F0B504460D4616464FF0FF33324627
:1040400029462046FFF7DBFF07463846F0BD2DE93D
:10405000FF4F06460F4615461EB9002004B0BDE8C6
:10406000F08F0FB90020F9E70DB90020F6E7681CC2
:1040700000B101E04FF0FF30039029463046FFF7D2
:10408000F1FD804638460399FFF7ECFD04460CB974
:104090003046E3E7444501D90020DFE706EB080B93
:1040A000BBF1000F01D10020D8E707EB040BBBF1F7
:1040B000000F01D10020D1E7A8EB040002904FF0DF
:1040C00000090020019000BF06EB09000090224685
:1040D00039460098FFF746FE8246BAF1000F01D13B
:1040E000012000E00020019009F10109019810B9B8
:1040F00002988145E8D9BAF1000F01D00020ADE760
:104100000098ABE770B504460D464FF0FF322946E4
:104110002046FFF79CFF0646304670BD2DE9FF4F55
:104120008DB00F4615461A9E1D9818B9002011B083
:10413000BDE8F08F002003900490012F01DA0120E8
:104140000390022D01D3242D01D90120039096B3B1
:104150003046FFF70BF802900298012802D00120A8
:10416000039028E0302E26D0A6F13000C0B2079090
:104170001B98012804D0A6F14100C0B2069003E0CC
:10418000A6F16100C0B206900A2D02D80798A84295
:1041900009DB0A2D09D907980A2804D3A5F10A00DA
:1041A0000699884201D9012000E000200590059879
:1041B000012800D103901D9C0398002846D1DDF80A
:1041C00034A0DDF834A0CDF830A001200B9007E03A
:1041D0000B98401CC0B20B900C98B0FBF5F00C9003
:1041E0000C98A842F4D21098012800D100E00020D9
:1041F00009900B9909980844B84225DC00200190E9
:104200000B98B84201DA0B9800E038460A903EB1AC
:10421000B8460A98391A0998081AC0B2089006E0F8
:10422000DDE90910084400F0FF0800200890089814
:10423000002806DD302E01D1012000E0002004908E
:1042400004E00020049001E001200390039800B1F5
:10425000B84644441C9808B100202070641E4FF0FA
:10426000000941E00398A8BBBAF1000F02D1B9F1EF
:10427000000F1CD1BAFBF5F005FB10A000F0FF0BFE
:10428000BBF10A0F04D20BF1300004F801090BE076
:104290001B98012804D00BF1370004F8010903E052
:1042A0000BF1570004F80109BAFBF5FA1AE010986F
:1042B000012810D1049808B9019828B1049850B188
:1042C000A8F10100484506D12D2004F8010901207C
:1042D000019007E003E02EB104F8016902E03F20FD
:1042E00004F8010909F10109C145BBD3039808B1DC
:1042F00000201CE71D981AE72DE9FF5F05460E46D2
:1043000017461C46DDE90F9ADDF8388000233A464F
:10431000314628468DE81007FFF700FF83465846D0
:1043200004B0BDE8F09F2DE9FF4F85B004468946F3
:104330001F46DDE913AB002C02DA6542012601E0DD
:104340002546002612983346CDE902ABCDE9007030
:1043500049462846079AFFF7E1FE8046404609B0E5
:10436000BDE8F08F2DE9FF4F8BB006468946154614
:10437000B9F1000F02D10DF1240900BFC9F80060A6
:10438000189810B907A8189000BF0021189801705C
:104390001EB900200FB0BDE8F08F012D01D0242DF3
:1043A00001D90020F6E734462078FEF7CDFE0390D1
:1043B00004E0641C2078FEF7C7FE039003980128F0
:1043C000F7D020782B2802D02D280BD103E0641CD5
:1043D0004FF0000B09E00E98012800D1641C4FF04B
:1043E000010B02E04FF0000B00BF00BF0A9425B1A3
:1043F000082D1CD0102D36D11EE02078302814D185
:10440000641C2078582802D078280BD100BF1025D2
:1044100067783846FEF77CFE8246BAF1010F00D17C
:10442000641C01E0082500BF00E00A251CE020789C
:10443000302800D1641C17E02078302812D1641C89
:104440002078582802D078280AD100BF67783846EB
:10445000FEF75EFE8246BAF1010F00D1641C00E057
:1044600000BF00BF00E000BF00BF4FF00008002009
:104470000290019040E027783846FEF7FBFD05905A
:104480000598012836D13846FEF72EFE069006988C
:10449000012804D1A7F13000C0B208900FE03846DF
:1044A000FEF70EFE04900498012804D1A7F15700EE
:1044B000C0B2089003E0A7F13700C0B20890089896
:1044C000A84214DA029880B9304850F825004045D7
:1044D00009D308FB05F8089880440898804504D261
:1044E0000120029001E001200290641C04E0012000
:1044F000019001E00120019001980028BBD00298B2
:10450000012801D14FF0FF380A98844202D0C9F83F
:10451000004001E0C9F80060189880F800B04046FB
:1045200038E7F8B504460D461646002003463246E5
:10453000294600902046FFF715FF07463846F8BD8C
:104540002DE9FC4105460E46174601A801233A46CF
:10455000314600902846FFF705FF04469DF8040009
:1045600040B9B4F1004F02D36FF0004000E02046A4
:10457000804607E0B4F1004F02D34FF0004000E066
:10458000604280464046BDE8FC81000044DB0008F4
:10459000002800D17047002900D17047002A00D1BF
:1045A00070472DE9F81F00F0030301F00304A34254
:1045B00011D1C3F1040303F00303012B1DD3012A1E
:1045C00000D2F2E011F8014B00F8014BA3F1010316
:1045D000A2F10102F1E700F0010301F00104A3429E
:1045E00000D094E0012B44D311F8014B00F8014BAB
:1045F000A3F10103A2F10102F4E7B2F5B47F26D3DF
:10460000B1E8F81FA0E8F81FB1E8F81FA0E8F81F0C
:10461000B1E8F81FA0E8F81FB1E8F81FA0E8F81FFC
:10462000B1E8F81FA0E8F81FB1E8F81FA0E8F81FEC
:10463000B1E8F81FA0E8F81FB1E8F81FA0E8F81FDC
:10464000B1E8F81FA0E8F81FA2F5B472D5E7282A50
:1046500006D3B1E8F81FA0E8F81FA2F12802F6E798
:10466000042A06D351F8043B40F8043BA2F10402AB
:10467000F6E7202A42D331F8023B20F8023B31F81A
:10468000023B20F8023B31F8023B20F8023B31F8B4
:10469000023B20F8023B31F8023B20F8023B31F8A4
:1046A000023B20F8023B31F8023B20F8023B31F894
:1046B000023B20F8023B31F8023B20F8023B31F884
:1046C000023B20F8023B31F8023B20F8023B31F874
:1046D000023B20F8023B31F8023B20F8023B31F864
:1046E000023B20F8023B31F8023B20F8023B31F854
:1046F000023B20F8023BA2F12002BAE7022A06D3CD
:1047000031F8023B20F8023BA2F10202F6E7102A40
:1047100042D311F8013B00F8013B11F8013B00F8CE
:10472000013B11F8013B00F8013B11F8013B00F897
:10473000013B11F8013B00F8013B11F8013B00F887
:10474000013B11F8013B00F8013B11F8013B00F877
:10475000013B11F8013B00F8013B11F8013B00F867
:10476000013B11F8013B00F8013B11F8013B00F857
:10477000013B11F8013B00F8013B11F8013B00F847
:10478000013B11F8013B00F8013B11F8013B00F837
:10479000013BA2F11002BAE7012A06D311F8013B4E
:1047A00000F8013BA2F10102F6E7BDE8F81F7047EF
:1047B0001548164816481748174818481848194801
:1047C00019481A481A481B481B481C481C481D48D1
:1047D0001D481E481E481F481F48204820482148A1
:1047E0002148224822482348234824482448254871
:1047F0002548264826482748274828482848294841
:10480000294800BF7047000078DC0008D8DB0008AA
:10481000DCDB0008E0DB0008E4DB0008E8DB000884
:10482000ECDB0008F0DB0008F4DB0008F8DB000834
:10483000FCDB000800DC000804DC000808DC0008E1
:104840000CDC000810DC000814DC000818DC000890
:104850001CDC000820DC000824DC000828DC000840
:104860002CDC000830DC000834DC000838DC0008F0
:104870003CDC000840DC000844DC000848DC0008A0
:104880004CDC000850DC000854DC000858DC000850
:104890005CDC000860DC000864DC000868DC000800
:1048A0006CDC000870DC000874DC0008002400BF29
:1048B00019E000BF00BFFEF7AFFB044600BF00BF1A
:1048C000F9480068401CF8490860F8480068401C36
:1048D000F649086000BF00BF2046FEF7A1FB00BFFD
:1048E00000BF07F079FBE4E710B58AB0044600206A
:1048F000ED4908600B2000210591CDE907040691E0
:104900000846EB490968EB4A1268EB4B1B68CDE996
:104910000132CDE903103F200023AFF26F02E7A17F
:104920000090EB4804F084FD0AB010BD00210AE0BD
:1049300001EB4102E74B03EB82000022028102609F
:1049400042604A1CD1B24029F2D3704770B5044688
:1049500007F04AFB0020E0490870E0490870E04990
:104960000870E0490860E0490860E0490870E049E3
:104970000870E0490870E0490860E0490860E049D3
:104980000860E0490870E04800680A21B0FBF1F0D7
:10499000DE490860DE48006858B1DE48056845B168
:1049A000DB48066803E0761E002028602D1D002EDF
:1049B000F9D10020D8490860D8490860D849086072
:1049C000D8490860D8490860D8490860D8490860C3
:1049D000D849087003F00CF8FFF7A8FF204601F053
:1049E00035FE208800B170BD204602F070F92088A5
:1049F00000B1F8E7204602F096F9208800B1F2E70E
:104A0000204602F0DDFF208800B1ECE7204603F0ED
:104A100089FC208800B1E6E7204604F09FF8208852
:104A200000B1E0E7204606F073F9208800B1DAE72C
:104A3000204601F090FF208800B1D4E72046FFF720
:104A400053FF208800B1CEE7204606F0B8FA208850
:104A500000B1C8E7204604F03AFB208800B1C2E765
:104A6000204607F014FA208800B1BCE700F016FEDB
:104A7000FFF79EFE00BFB6E798480078012800D0F7
:104A8000704795480078FA2800DBF9E792480078EB
:104A9000401C9149087000BFF2E710B500248F4810
:104AA0000078012800D010BD00BFFEF7B5FA04461B
:104AB00000BF8948007828B900BF2046FEF7B0FA49
:104AC00000BFF0E784480078401E8349087008461C
:104AD0000078002805DD00BF2046FEF7A1FA00BFE0
:104AE000E1E77F480078002805DD00BF2046FEF79B
:104AF00097FA00BFD7E702F085FF7D4908700846A6
:104B0000007800EB4000734951F8200076490860B6
:104B10000846006873490968884205D100BF2046ED
:104B2000FEF77EFA00BFBEE76F480068D0F890003D
:104B3000401C6D490968C1F890007F480068401C1E
:104B40007D49086007F060FF00BF2046FEF768FA65
:104B500000BF00BFA7E710B500245F480078002819
:104B600000DD10BD5E480078002800DDF9E700BFD9
:104B7000FEF752FA044600BF02F044FF5C49087099
:104B80000846007800EB4000524951F82000564991
:104B900008600846006853490968884205D100BF8B
:104BA0002046FEF73DFA00BFDBE74F480068D0F82B
:104BB0009000401C4C490968C1F890005E480068AC
:104BC000401C5D49086007F01AFF00BF2046FEF751
:104BD00027FA00BF00BFC4E710B54148007801289C
:104BE00003D1FEF79CF84449086010BD70B5044637
:104BF000002539480078002803DD46F66250208001
:104C000070BD36480078012803D045F689602080C1
:104C1000F6E733480078FA2803DB45F209202080C4
:104C2000EEE700BF00BFFEF7F7F9054600BF00BF83
:104C30002B480078401C2A490870FFF7CDFF00BFC1
:104C400000BF2846FEF7ECF900BF00BF002020801F
:104C500000BFD5E710B52248007880B9FEF75FF8AD
:104C600025490968441A25480068A04201D2234812
:104C7000046023480068A04201D22148046010BDAE
:104C800070B50446002514480078002803DD46F678
:104C90006550208070BD1148007801284ED045F63F
:104CA00089602080F6E700006C000020D000002022
:104CB000E0DB0008DCDB0008D8DB000875432F4F81
:104CC000532D4949492049646C65205461736B0038
:104CD000703B0020043D0020700000207100002087
:104CE000B800002010010020140100209E000020C8
:104CF0009F000020A0000020AC000020B000002099
:104D0000B4000020C000002038DC0008BC000020F7
:104D100008DC000804DC00085000002054000020DB
:104D2000580000205C00002060000020640000208B
:104D300068000020EE000020E4000020F948007820
:104D400018B946F664502080A4E700BF00BFFEF704
:104D500063F9054600BF00BFF2480078401EF149E4
:104D600008700846007800280ADD00BF00BF28460A
:104D7000FEF756F900BF00BF46F66350208089E772
:104D8000FFF768FF00BF00BF2846FEF749F900BFE4
:104D900000BFFFF7E0FE0020208000BF7AE72DE98A
:104DA000F04105460C461646002700BF00BFFEF73F
:104DB00033F9074600BF00BF012D03D00020DA49B8
:104DC000087002E00120D849087014B1D748046087
:104DD00006E0D74800680A21B0FBF1F0D34908602B
:104DE00000BF00BF3846FEF71BF900BF00BF002020
:104DF0003080BDE8F08110B501460C8924B1012C4A
:104E000003D0022C0CD101E000BF14E008684A680E
:104E100002610024C4601461D0600A6048600AE046
:104E200008684A68C36800241C61C4600261D060DD
:104E30000B60486000BF00BF10BD2DE9F041044683
:104E40000027BC480078002804DD48F2D1402080CB
:104E5000BDE8F081B3480078002803DD46F66350D2
:104E60002080F5E7B0480078012803D046F67B1093
:104E70002080EDE700BF00BFFEF7CEF8074600BF79
:104E800000BFAD48007800EB4000AC4901EB800664
:104E9000308902280ADA00BF00BF3846FEF7C0F8A2
:104EA00000BF00BF46F67A102080D1E73046FFF7FA
:104EB000A2FF3568686D18B99C480068A86501E0D4
:104EC000686DA86500BF00BF3846FEF7A9F800BFAF
:104ED00000BFFFF740FE0020208000BFB8E710B5FC
:104EE000044697480078E8B902F08CFD95490870AF
:104EF00008460078904908709248007800EB40001E
:104F00008E4951F8200090490860084600688F4992
:104F1000086001208A49087007F060FD43F6992077
:104F2000208002E045F68A60208010BD0146002006
:104F3000088047F25C60704730B548B14568C1F8F9
:104F4000C05000F10804226893681D6AC56113E02F
:104F500091F83450022D02D0072D08D103E07CA532
:104F6000C1F8C05007E07CA5C1F8C05003E07DA5A2
:104F7000C1F8C05000BF00BF30BDF0B58E6896F8D4
:104F8000375007893FB90127078100274F600F601D
:104F90000160416023E007897F1C0781026806E009
:104FA000946894F83770AF4200DD02E05268002A3E
:104FB000F6D100BF32B900274F6043680B605960DB
:104FC00041600CE017682FB9116000270F604A603C
:104FD000016004E013680B604A6059601160F0BD25
:104FE00010B5C287016300230AE000244C600C6006
:104FF0000C614C610C83CC61886020315C1CA3B2D5
:105000009342F2DB10BD2DE9F041054695F83700DB
:1050100000EB4000494901EB80042F69EE6887B935
:1050200046B9002020812060606095F8370002F0CA
:105030000BFD0EE02089401E20810020306126609B
:1050400007E02089401E2081FE600EB9676000E005
:10505000376100202861E860BDE8F08138B504467A
:105060000D4685B16B4602222946204605F0E8FF31
:10507000BDF8000018B9032084F8360006E00220CD
:1050800084F8360002E0022084F836002046FFF75C
:10509000BAFF38BD2DE9F04105460C4616461F46BD
:1050A0002A48006880F8346000202849096881F89F
:1050B0003500394625480068FFF7D0FF6CB104F190
:1050C0000808EC600122294620480068FFF788FFA5
:1050D00029464046FFF751FF06E000201B490968BA
:1050E000C8871A4909680863184801682046FFF70D
:1050F00023FFBDE8F08110B50489012C03D1002401
:105100000460446034E00C6824B94A6800241460E8
:1051100002602DE04C6824B90B6800245C60436099
:1051200026E021E0B8000020C0000020BC000020E4
:1051300038DC0008700000209E000020043D0020A4
:10514000710000209F0000201401002010010020A9
:105150005461736B205100005461736B2053656D73
:1051600000000000200000000B684A685A601360CD
:105170000489641E048100244C600C6010BD2DE97C
:10518000F0410446256BE68F0AE0D5F80C8008F163
:10519000080729463846FFF7AEFF2035701E86B255
:1051A000002EF2DC0020E0872063BDE8F08130B5FE
:1051B0000346086BCC8F08E0C5689D4202D10361AD
:1051C000C26104E02030651EACB2002CF4DC00BFEC
:1051D00030BD10B590F8373003EB4303F94C04EBC6
:1051E00083010B893BB901230B810023C360036159
:1051F0000860486009E00B895B1C0B810B68C36089
:10520000002303610A681061086010BD10B590F8B2
:10521000373003EB4303EB4C04EB83010B893BB9C1
:1052200001230B810023C36003610860486008E02C
:105230000B895B1C0B810023C3604A680261D0604C
:10524000486010BD10B5044694F8370002F0ECFB3E
:1052500094F83700DC490978884203D12046FFF7EB
:10526000D5FF02E02046FFF7B4FF10BD10B504469D
:10527000204605F075FD94F8360000F0040010B9E2
:105280002046FFF7DFFF10BD70B505460C461646F9
:1052900094F83600082847D2DFE800F00405080932
:1052A0000607272800BF00BF00BF3EE000BF94F8FC
:1052B0003400032804D1324621462846FFF777FF01
:1052C0000020E065A4F86000266415B12046FFF7D1
:1052D00056FF2046FFF7CAFF00203434A07001209B
:1052E0006070002004F834091FE000BF94F8340017
:1052F000032804D1324621462846FFF758FF0020F4
:10530000E065A4F86000266415B12046FFF737FF7A
:10531000204605F025FD04203434A0700120607083
:10532000002004F8340900E000BF00BF70BD30B5B4
:10533000AFF2D015C1F8C05000F1080422681AB1CC
:1053400093681D6AC56102E0AFF2E815C56130BD22
:105350002DE9F04304460F4684F83770256BB4F806
:105360003E8013E0D5F80C9009F108063089012839
:1053700007D929463046FFF7BEFE29463046FFF7DB
:10538000FCFD2035A8F101001FFA80F8B8F1000FEC
:10539000E8D1BDE8F08300210160416001817047E0
:1053A00003895B1C038103684B6000230B60026868
:1053B00002B1116001600389012B00D14160704787
:1053C00030B50346086BCC8F08E0C5689D4202D11A
:1053D0000361C26104E02030651EACB2002CF4DC35
:1053E00000BF30BD70B506460C46154694F8360031
:1053F000082845D2DFE800F004050809060726273B
:1054000000BF00BF00BF3CE000BF94F83400032899
:1054100004D12A4621463046FFF7D2FF0020E0653E
:10542000A4F8600025642046FFF7A9FE2046FFF798
:105430001DFF00203434A07002206070002004F8AA
:1054400034091EE000BF94F83400032804D12A4632
:1054500021463046FFF7B4FF0020E065A4F8600065
:105460002564204605F07CFC2046FFF788FE0420DA
:105470003434A07002206070002004F8340900E089
:1054800000BF00BF70BDF0B50446059E086BCD8F10
:105490000AE0C768A74204D1046142610383C66180
:1054A00004E020306F1EBDB2002DF2DC00BFF0BD65
:1054B0002DE9F84306460C4617469846089D94F891
:1054C0003600082850D2DFE800F004050809060776
:1054D0002B2C00BF00BF00BF47E000BF94F8340092
:1054E000032807D143463A46214630460095FFF748
:1054F000CAFF03E0E765A4F86080256436B1204662
:10550000FFF73DFE21463046FFF711FF2046FFF72B
:10551000ADFE00203434A070607004F8340924E03B
:1055200000BF94F83400032807D143463A46214689
:1055300030460095FFF7A7FF03E0E765A4F8608019
:105540002564204605F00CFC36B12046FFF717FE17
:1055500021463046FFF7EBFE04203434A0700020D3
:10556000607004F8340900E000BF00BFBDE8F883B4
:1055700010B5002400BFFDF74FFD044600BF00201A
:105580001249087012481349086008460068D0F8AC
:105590009000401C0968C1F890000F480068401C4A
:1055A0000D49086007F02BFA00BF2046FDF738FDD3
:1055B00000BF10BD70B505460026084800780128D8
:1055C0000ED070BD043D00209E0000209F000020F2
:1055D000343C002014010020E4000020C000002022
:1055E00000BF00BFFDF718FD064600BF00BF2C68D6
:1055F0003CB900BF00BF3046FDF712FD00BF00BF41
:10560000DFE72348844207D100BF00BF3046FDF7E3
:1056100007FD00BF00BFD4E7A06D10B1A06D401E14
:10562000A065A06D38B100BF00BF3046FDF7F8FCA3
:1056300000BF00BFC5E72889022807DA00BF00BF06
:105640003046FDF7EDFC00BF00BFBAE71148007817
:10565000002807DD00BF00BF3046FDF7E1FC00BFBA
:1056600000BFAEE72846FFF7C6FB2C68606D18B98F
:1056700009480068A06501E0606DA06500BF00BF3B
:105680003046FDF7CDFC00BF00BF00BF99E700002A
:10569000703B0020B8000020BC00002024482548B2
:1056A0002548264826482748274828482848294882
:1056B00029482A482A482B482B482C482C482D4852
:1056C0002D482E482E482F482F4830483048314822
:1056D00031483248324833483348344834483548F2
:1056E00035483648364837483748384838483948C2
:1056F00039483A483A483B483B483C483C483D4892
:105700003D483E483E483F483F4840484048414861
:105710004148424842484348434844484448454831
:105720004548464846484748474800BF704700003C
:105730007CDC0008E4DD00087EDC00087FDC00087B
:1057400080DC000884DC000888DC000885DC0008B8
:10575000B0DC0008B1DC0008B2DC0008B4DC0008F2
:10576000B6DC0008B8DC0008BADC0008BCDC0008C5
:10577000DCDC0008DEDC0008E0DC0008E2DC00081D
:10578000E4DC0008E6DC0008E8DC000814DD0008C2
:1057900015DD000816DD000818DD00081ADD000818
:1057A0001BDD00081CDD00081EDD000820DD0008F0
:1057B00022DD000824DD000826DD000828DD0008C1
:1057C00058DD000859DD00085ADD00085BDD0008DF
:1057D0005CDD00085EDD000860DD000888DD000893
:1057E00089DD00088ADD00088BDD00088CDD0008FB
:1057F0008EDD000890DD000894DD000895DD0008CE
:1058000096DD000897DD000898DD000899DD0008A6
:105810009ADD00089BDD00089CDD00089EDD000885
:105820009FDD0008A0DD0008A2DD0008A4DD00085F
:10583000A5DD0008A8DD0008DCDD0008DDDD0008CE
:10584000DEDD0008E0DD0008E2DD0008F7A1C1614F
:1058500000214161F649096811B90021816105E023
:10586000F34909688161F24909684861F0490860B3
:1058700070472DE9F04104460E4617461D464FF08D
:105880000008EC480078002804DD42F6E16028803A
:10589000BDE8F0811CB945F6C3502880F8E700BF89
:1058A00000BF00BFFDF7B8FB804600BF00BFE24865
:1058B0000078401CE049087000BF00BF4046FDF77B
:1058C000AFFB00BF00BF00BFDC48206066602762FE
:1058D0000020606204F10800FFF75DFD2046FFF73D
:1058E000B5FFD7480088401CD549088000BF00BFDD
:1058F00000BFFDF791FB804600BF00BFCE48007897
:10590000401ECD49087000BF00BF4046FDF788FB30
:1059100000BF00BF00BF0020288000BFB8E770B5FF
:105920000446C8482060C8A060600020206204F1DE
:1059300008052846FFF72FFD70BD426981693AB915
:10594000BB4B196009B100234B610023836109E05F
:1059500019B900239361436104E091614A61002316
:105960008361436170472DE9FC5F05468846144614
:1059700000200090AF480078002805DD43F2C920E0
:1059800020800020BDE8FC9F25B945F6C35020804B
:105990000020F7E7B8F1000F03D0B8F1010F02D1F2
:1059A00000E000BF04E045F6256020800020E9E724
:1059B00000BFA2492868884204D045F6C450208020
:1059C0000020DFE700BF00BF00BFFDF725FB009010
:1059D00000BF00BF98480078401C9749087000BF7E
:1059E00000BF0098FDF71CFB00BF00BF00BF05F122
:1059F0000809B9F808603746B8F1000F03D0B8F1CC
:105A0000010F6ED16EE07FBB2846FFF796FF8C48F2
:105A10000088401E8A4908802846FFF780FF00BFA3
:105A200000BF00BFFDF7F8FA009000BF00BF82483A
:105A30000078401E8049087008460078A8B984485C
:105A40000088002809DD00BF00BF0098FDF7E8FAD4
:105A500000BF00BFFFF78CFD0EE000BF00BF009845
:105A6000FDF7DEFA00BF07E00AE000BF00BF0098C4
:105A7000FDF7D6FA00BF00BF00BF002020802FE056
:105A800000BF00BF00BFFDF7C7FA009000BF00BF16
:105A900069480078401E6849087008460078A0B937
:105AA0006B480088002809DD00BF00BF0098FDF7A3
:105AB000B7FA00BF00BFFFF75BFD0DE000BF00BFFE
:105AC0000098FDF7ADFA00BF06E000BF00BF0098E8
:105AD000FDF7A6FA00BF00BF00BF47F25F102080AD
